:020000040800F2
:10000000E80B002069020008D5290008D72900085C
:10001000DB290008DF290008E329000800000000B0
:10002000000000000000000000000000E7290008B8
:10003000E929000800000000EB290008ED2900086C
:10004000830200088302000883020008830200087C
:10005000830200088302000883020008830200086C
:10006000830200088302000883020008830200085C
:10007000830200088302000883020008830200084C
:10008000830200088302000883020008830200083C
:10009000830200088302000883020008830200082C
:1000A000830200088302000883020008830200081C
:1000B000830200088302000883020008830200080C
:1000C00083020008830200088302000883020008FC
:1000D00083020008372A0008B32A00082F2B0008E3
:1000E00083020008830200088302000883020008DC
:1000F00083020008830200088302000883020008CC
:1001000083020008830200088302000883020008BB
:100110002B2C00087B2C00088302000883020008B7
:10012000830200088302000883020008830200089B
:10013000830200088302000883020008830200088B
:10014000830200088302000883020008830200087B
:10015000830200088302000883020008C32C000801
:10016000830200088302000883020008830200085B
:10017000830200088302000883020008830200084B
:10018000830200088302000800F002F800F05CF827
:100190000AA090E8000C82448344AAF10107DA45E2
:1001A00001D100F051F8AFF2090EBAE80F0013F0D8
:1001B000010F18BFFB1A43F00103184794650000B4
:1001C000B46500000A444FF0000C10F8013B13F036
:1001D000070408BF10F8014B1D1108BF10F8015BA0
:1001E000641E05D010F8016B641E01F8016BF9D193
:1001F00013F0080F1EBF10F8014BAD1C0C1B09D1EA
:100200006D1E58BF01F801CBFAD505E014F8016B5B
:1002100001F8016B6D1EF9D59142D6D370470000ED
:100220000023002400250026103A28BF78C1FBD8FF
:10023000520728BF30C148BF0B6070471FB506F09A
:100240007CFA1FBD10B510BD06F047F81146FFF748
:10025000F5FF02F0A9FD06F065F803B4FFF7F2FF21
:1002600003BC06F06DF800000948804709480047C4
:10027000FEE7FEE7FEE7FEE7FEE7FEE7FEE7FEE756
:10028000FEE7FEE704480549054A064B70470000B3
:100290008503000889010008E8050020E80B00201C
:1002A000E8070020E80700200CB50020019000902E
:1002B0007648006840F480307449086000BF734895
:1002C000006800F4003000900198401C01900098F4
:1002D00018B90198B0F5A04FF1D16C48006800F44E
:1002E000003010B10120009001E000200090009843
:1002F000012846D165484030006840F0805063498D
:10030000403108606248006840F44040604908603D
:100310005E48083000685D4908310860084600689A
:1003200040F4004008600846006840F4A0500860AF
:100330005848091F0860081F006840F08070091FB6
:10034000086000BF5148006800F000700028F9D034
:1003500040F20570504908604C480830006820F0B1
:1003600003004A49083108600846006840F002006E
:10037000086000BF45480830006800F00C000828FD
:10038000F8D10CBD10B54548006840F470004349F1
:1003900008603E48006840F001003C4908600020C9
:1003A0003A4908310860394800683D4908403749F2
:1003B00008603C48091D0860081F006820F4802080
:1003C000091F0860002031490C310860FFF76CFFFD
:1003D0004FF0006031498039086010BD70B50020D1
:1003E0000022022300240221284D08352D6805F043
:1003F0000C0020B1042806D0082834D107E02A4D8B
:100400002A4E356033E02A4D284E35602FE01F4DCF
:100410002D1D2D68C5F380541C4D2D1D2D6805F034
:100420003F0154B1224DB5FBF1F5184E361D36682B
:10043000C6F3881605FB06F209E01B4DB5FBF1F586
:10044000124E361D3668C6F3881605FB06F20F4DB0
:100450002D1D2D68C5F301456D1C6B00B2FBF3F536
:10046000124E356003E0104D104E356000BF00BFE6
:10047000064D08352D68C5F303150E4E705D0B4D06
:100480002D68C540094E356070BD0000003802403F
:1004900000700040042A4007003C024088ED00E064
:1004A000FFFFF6FE103000240024F40000000020BE
:1004B00000127A000400002010B500F015F802F0D8
:1004C00015F802F0F7F94FF47A7000F05BF800F0DD
:1004D00097F80A2001F078FF02F0C8F801F0A5FEB5
:1004E00000F08CFA10BD00001CB50121022004F0C0
:1004F0006BFD4FF48050009001208DF80400002027
:100500008DF8060002208DF8050069461B4804F0AE
:100510001DFB0121082004F057FD4FF4005000900E
:1005200001208DF8040000208DF8060002208DF8CF
:1005300005006946124804F009FB4FF480510F484A
:1005400004F082FB4FF400510D4804F07DFB1CBD0C
:1005500010B54FF48051094804F07FFB10BD10B571
:100560004FF48051054804F078FB4FF400510448E3
:1005700004F073FBC82002F037FC10BD00040240F9
:10058000000C024070B50346184803601848006824
:10059000184AB0FBF2F0154A126800FB02F1481E3F
:1005A000B0F1807F01D301201BE0481E4FF0E02214
:1005B000506150170F22002807DA1407260E0E4C40
:1005C00000F00F052D1F665503E01407250E0B4C98
:1005D000255400BF00204FF0E022906107201061F9
:1005E000002008B100BFFEE770BD0000140000202D
:1005F0000000002040420F0018ED00E000E400E0A1
:1006000000B587B00121084604F0DEFC072209216D
:10061000F04804F026FB07220A21EE4804F021FBF3
:100620004FF4C060059000208DF819008DF81A0075
:1006300002208DF8180005A9E64804F087FA012188
:10064000102004F0F4FC4FF4165001900020ADF897
:100650000800ADF80A00ADF80C00ADF810000C2051
:10066000ADF80E0001A9DC4805F071FC0121DA4863
:1006700005F0F5FC8021D84805F0D9FD012240F2B3
:100680002551D54805F0A1FD0121082004F09CFC6E
:1006900007220521D14804F0E4FA07220621CF48B9
:1006A00004F0DFFA6020059000208DF819008DF825
:1006B0001A0002208DF8180005A9C84804F046FA6F
:1006C0000121480404F0A2FC4FF4165001900020D0
:1006D000ADF80800ADF80A00ADF80C00ADF8100058
:1006E0000C20ADF80E0001A9BD4805F030FC012139
:1006F000BB4805F0B4FC8021B94805F098FD012203
:1007000040F22551B64805F060FD0121082004F0B3
:100710005BFC07220821B14804F0A3FA0722092153
:10072000AE4804F09EFA4FF44070059000208DF81A
:1007300019008DF81A0002208DF8180005A9A748A5
:1007400004F004FA0121880404F060FC4FF4E13065
:1007500001900020ADF80800ADF80A00ADF80C00DB
:10076000ADF810000C20ADF80E0001A99D4805F071
:10077000EEFB01219B4805F072FC8021994805F0B1
:1007800056FD012240F22551964805F01EFD01213B
:10079000042004F019FC08220A21934804F061FAAD
:1007A00008220B21904804F05CFA4FF44060059059
:1007B00000208DF819008DF81A0002208DF818001D
:1007C00005A9894804F0C2F90121C80404F01EFCFF
:1007D0004FF4E13001900020ADF80800ADF80A00B8
:1007E000ADF80C00ADF810000C20ADF80E0001A91A
:1007F0007E4805F0ACFB012240F225517B4805F014
:10080000E4FC8021794805F012FD0121774805F0CC
:1008100026FC01210C2004F0D7FB08220C21724891
:1008200004F01FFA082202216C4804F01AFA4FF46F
:100830008050059000208DF819008DF81A000220D4
:100840008DF8180005A9684804F080F90420059087
:1008500000208DF819008DF81A0002208DF818007C
:1008600005A95E4804F072F90121080504F0CEFBE9
:100870004FF4165001900020ADF80800ADF80A00C2
:10088000ADF80C00ADF810000C20ADF80E0001A979
:10089000574805F05CFB8021554805F0C8FC012253
:1008A00040F22551524805F090FC0121504805F0D6
:1008B000D6FB0121402004F087FB08220E214D4881
:1008C00004F0CFF9082209214A4804F0CAF94FF48C
:1008D0008440059001208DF8190000208DF81A0041
:1008E00002208DF8180005A9424804F02FF90121D3
:1008F000202004F09CFB4FF4E13001900020ADF883
:100900000800ADF80A00ADF80C00ADF810000C209E
:10091000ADF80E0001A9384805F019FB80213648D2
:1009200005F085FC0121344805F099FB012240F2D5
:100930002551314805F049FC07B000BD70B50546AA
:1009400000240CE0285D2949091D088000BF802192
:10095000264805F05FFC0028F9D0601CC4B2062CC4
:10096000F0DB70BD70B505460E4600240BE0285D37
:100970001949888000BF8021174805F04BFC0028EA
:10098000F9D0601CC4B2B442F1DB70BD10B50446AE
:100990001948001D048000BF8021174805F03AFC6B
:1009A0000028F9D010BD2DE9F04105460E46174646
:1009B00000240AE0305DA88000BF8021284605F0B1
:1009C00029FC0028F9D0601CC4B2BC42F2DBBDE8AF
:1009D000F08100000000024000100140000C0240C5
:1009E000004400400048004000080240004C004025
:1009F00000500040001802400014014008B54FF4B8
:100A0000A06003F0C3FF4FF4A06003F0BFFF2520F8
:100A10008DF8000002208DF801008DF80200012001
:100A20008DF80300684603F0B6FF4FF4E06003F072
:100A3000ADFF26208DF8000000208DF801008DF814
:100A4000020001208DF80300684603F0A4FF4FF474
:100A5000C06003F09BFF27208DF8000001208DF877
:100A600001008DF802008DF80300684603F093FF43
:100A70004FF4806003F08AFF34208DF800000320DB
:100A80008DF801008DF8020001208DF80300684602
:100A900003F081FF4FF4407003F078FF35208DF8AC
:100AA000000000208DF801008DF8020001208DF873
:100AB0000300684603F06FFF4FF4407003F066FFD9
:100AC00047208DF8000001208DF801008DF802000C
:100AD0008DF80300684603F05EFF08BD2DE9F04184
:100AE00006460C46002751203D494870002C03DB88
:100AF0001C2C01DC0C7101E0BDE8F08138488670E7
:100B0000002504E03648405D4740681CC5B2052D0D
:100B1000F8DB334847710721FFF724FF00BFEBE7FD
:100B200070B5002553202F494870002404E02D485B
:100B3000005D4540601CC4B2052CF8DB29484571B6
:100B40000721FFF70FFF70BD2DE9F84F804689465A
:100B500015461C46DDF828A0FF200090C8209AFB0F
:100B6000F0F01FFA80FB002733E00026642C00DA47
:100B70006424204602F038F949464046FFF7AEFFAC
:100B80000F2002F031F90020174908700CE0C8204E
:100B900002F02AF9002015490870FFF7C1FF701C08
:100BA00086B25E4500DD07E011480078022803D0D8
:100BB0000D4800780028EAD000BF0D4800780228D0
:100BC00002D10120009002E00020009004E0781C97
:100BD00087B2AF42C9DB00BF0098BDE8F88F0000C4
:100BE000180000201F0000202F0000202E000020F1
:100BF0002D00002010B5AA20FFF7C8FE10BD10B5CB
:100C0000CC20FFF7C3FE3320FFF7C0FEC320FFF761
:100C1000BDFE3C20FFF7BAFE10BD10B50446FFF73D
:100C2000E9FF7020FFF7B2FE2046FFF7AFFEFFF7A7
:100C3000E6FF10BD2DE9F04104460D4616461F465D
:100C4000FFF7D8FF5920FFF7A1FEA046E11704EBFC
:100C50001161C1F30720FFF799FEE11704EB116161
:100C60000912A4EB0121C8B2FFF790FEA846E917CC
:100C700005EB1161C1F30720FFF788FEE91705EBCB
:100C800011610912A5EB0121C8B2FFF77FFEB04642
:100C9000F11706EB1161C1F30720FFF777FEF1179B
:100CA00006EB11610912A6EB0121C8B2FFF76EFE37
:100CB000B846F91707EB1161C1F30720FFF766FE8D
:100CC000F91707EB11610912A7EB0121C8B2FFF771
:100CD0005DFEFFF794FFBDE8F0812DE9F041044689
:100CE0000D4616461F46FFF785FF5B20FFF74EFEB9
:100CF000A046E11704EB1161C1F30720FFF746FEA0
:100D0000E11704EB11610912A4EB0121C8B2FFF74E
:100D10003DFEA846E91705EB1161C1F30720FFF777
:100D200035FEE91705EB11610912A5EB0121C8B2E7
:100D3000FFF72CFEB046F11706EB1161C1F3072057
:100D4000FFF724FEF11706EB11610912A6EB012152
:100D5000C8B2FFF71BFEB846F91707EB1161C1F3E4
:100D60000720FFF713FEF91707EB11610912A7EB34
:100D70000121C8B2FFF70AFEFFF741FFBDE8F0818D
:100D800010B5FFF737FF5220FFF700FEFFF737FFE0
:100D900010BD70B504460D46FFF72CFF4020FFF74D
:100DA000F5FD2646E11704EB1161C1F30720FFF7BB
:100DB000EDFDE11704EB11610912A4EB0121C8B2AA
:100DC000FFF7E4FD2E46E91705EB1161C1F307209B
:100DD000FFF7DCFDE91705EB11610912A5EB012115
:100DE000C8B2FFF7D3FDFFF70AFF70BD70B5044628
:100DF0000D46FFF7FFFE4220FFF7C8FD2646E1172C
:100E000004EB1161C1F30720FFF7C0FDE11704EB0C
:100E100011610912A4EB0121C8B2FFF7B7FD2E46FC
:100E2000E91705EB1161C1F30720FFF7AFFDE917E3
:100E300005EB11610912A5EB0121C8B2FFF7A6FD70
:100E4000FFF7DDFE70BD10B50446FFF7D3FE792035
:100E5000FFF79CFD2046FFF799FDFFF7D0FE10BD80
:100E600010B50446FFF7C6FE5F20FFF78FFD204652
:100E7000FFF78CFDFFF7C3FE10BD2DE9F04781465B
:100E8000884614461D46089EFFF7B4FE9B20FFF7D8
:100E90007DFDFF20FFF77AFD4846FFF777FD4046CE
:100EA000FFF774FD2746E11704EB1161C1F307203A
:100EB000FFF76CFDE11704EB11610912A4EB0121AE
:100EC000C8B2FFF763FD2F46E91705EB1161C1F3C7
:100ED0000720FFF75BFDE91705EB11610912A5EB90
:100EE0000121C8B2FFF752FD3746F11706EB116139
:100EF000C1F30720FFF74AFDF11706EB1161091254
:100F0000A6EB0121C8B2FFF741FDFFF778FEBDE86F
:100F1000F0872DE9F04704460D4616461F46DDE9E9
:100F20000889FFF767FEE720FFF730FD5520FFF740
:100F30002DFDAA20FFF72AFD5A20FFF727FDA52047
:100F4000FFF724FD0A2094FBF0F100FB114194FB14
:100F5000F0F001EB001000F0FF0A5046FFF716FD1D
:100F60000A2095FBF0F100FB115195FBF0F001EB2D
:100F7000001000F0FF0A5046FFF708FD0A2096FB1C
:100F8000F0F100FB116196FBF0F001EB001000F0B6
:100F9000FF0A5046FFF7FAFC0A2097FBF0F100FB2E
:100FA000117197FBF0F001EB001000F0FF0A5046C2
:100FB000FFF7ECFC0A2098FBF0F100FB118198FB95
:100FC000F0F001EB001000F0FF0A5046FFF7DEFCE6
:100FD0000A2099FBF0F100FB119199FBF0F001EB75
:100FE000001000F0FF0A5046FFF7D0FCFFF707FEA5
:100FF000BDE8F08770B505460E461446FFF7FAFDCA
:101000005520FFF7C3FC2812FFF7C0FCE8B2FFF73A
:10101000BDFC3012FFF7BAFCF0B2FFF7B7FC03E0FB
:1010200014F8010BFFF7B2FC20780028F8D1FFF785
:10103000E6FD70BDF8B505460E461446FEA00068F4
:1010400000900A2094FBF0F100FB11403030C0B258
:101050008DF8000000208DF801006A4631462846D0
:10106000FFF7C8FFF8BDF8B505460E461446F3A0D5
:10107000006800900A2094FBF0F03030C0B28DF888
:1010800000000A2094FBF0F100FB11403030C0B2A8
:101090008DF8010000208DF802006A46314628468E
:1010A000FFF7A8FFF8BDF8B505460E461446E4A0C4
:1010B00000680090642094FBF0F03030C0B28DF8EE
:1010C00000000A2094FBF0F00A2190FBF1F201FBF2
:1010D00012003030C0B28DF801000A2094FBF0F10C
:1010E00000FB11403030C0B28DF8020000208DF8B6
:1010F00003006A4631462846FFF77CFFF8BD2DE91C
:10110000F04104460D4616461F46FFF773FD5A2070
:10111000FFF73CFCA046E11704EB1161C1F3072087
:10112000FFF734FCE11704EB11610912A4EB012174
:10113000C8B2FFF72BFCA846E91705EB1161C1F314
:101140000720FFF723FCE91705EB11610912A5EB56
:101150000121C8B2FFF71AFCB046F11706EB116186
:10116000C1F30720FFF712FCF11706EB116109121A
:10117000A6EB0121C8B2FFF709FCB846F91707EB47
:101180001161C1F30720FFF701FCF91707EB1161AB
:101190000912A7EB0121C8B2FFF7F8FBFFF72FFDFB
:1011A000BDE8F08110B5AA20FFF7F0FB4320FFF760
:1011B000EDFB0020FFF7EAFB7920FFF7E7FB0020BB
:1011C000FFF7E4FB0D20FFF7E1FBCC20FFF7DEFB90
:1011D0003320FFF7DBFBC320FFF7D8FB3C20FFF7F2
:1011E000D5FB10BD70B50446B4F57A7F00DB002452
:1011F000AA20FFF7CBFB5B20FFF7C8FB0020FFF71F
:10120000C5FB7220FFF7C2FB0020FFF7BFFB0920E0
:10121000FFF7BCFB0020FFF7B9FBBA20FFF7B6FBD6
:101220000020FFF7B3FB2B20FFF7B0FBCC20FFF72C
:10123000ADFB3320FFF7AAFBC320FFF7A7FB3C2041
:10124000FFF7A4FBAA20FFF7A1FB9820FFF79EFB66
:101250000020FFF79BFB7A20FFF798FB0020FFF7A9
:1012600095FB0A20FFF792FB2320FFF78FFB8120DD
:10127000FFF78CFB0320FFF789FBFF20FFF786FBBE
:10128000FF20FFF783FB0020FFF780FB1F20FFF705
:101290007DFB642094FBF0F03030C5B22846FFF7A8
:1012A00075FB642094FBF0F100FB114084B20A202E
:1012B00094FBF0F03030C5B22846FFF767FB0A20F8
:1012C00094FBF0F100FB11403030C5B22846FFF727
:1012D0005DFBCC20FFF75AFB3320FFF757FBC32001
:1012E000FFF754FB3C20FFF751FB70BD10B5AA205F
:1012F000FFF74CFB5B20FFF749FB0120FFF746FBA4
:101300003420FFF743FB0020FFF740FB0920FFF7E5
:101310003DFB0120FFF73AFB8020FFF737FB002061
:10132000FFF734FB2B20FFF731FBCC20FFF72EFB20
:101330003320FFF72BFBC320FFF728FB3C20FFF7F0
:1013400025FBAA20FFF722FB9820FFF71FFB0120B7
:10135000FFF71CFB3620FFF719FB0020FFF716FBF9
:101360000A20FFF713FB2320FFF710FB8120FFF774
:101370000DFB0320FFF70AFBFF20FFF707FBFF2011
:10138000FFF704FB0020FFF701FB1F20FFF7FEFA29
:10139000B920FFF7FBFAA420FFF7F8FAD720FFF7F0
:1013A000F5FAF720FFF7F2FACC20FFF7EFFA332037
:1013B000FFF7ECFAC320FFF7E9FA3C20FFF7E6FA63
:1013C00010BD10B5AA20FFF7E1FA5B20FFF7DEFAA7
:1013D0000120FFF7DBFA3420FFF7D8FA0020FFF7EF
:1013E000D5FA0920FFF7D2FA0120FFF7CFFA8020C3
:1013F000FFF7CCFA0020FFF7C9FA2B20FFF7C6FA57
:10140000CC20FFF7C3FA3320FFF7C0FAC320FFF761
:10141000BDFA3C20FFF7BAFAAA20FFF7B7FA9820E6
:10142000FFF7B4FA0120FFF7B1FA3620FFF7AEFA62
:101430000020FFF7ABFA05E030000000303000007C
:10144000303030000A20FFF7A1FA2320FFF79EFA80
:101450008120FFF79BFA0320FFF798FAFF20FFF7A0
:1014600095FAFF20FFF792FA0020FFF78FFA1F206E
:10147000FFF78CFABF20FFF789FAD520FFF786FA2D
:10148000CF20FFF783FAD020FFF780FACC20FFF7B8
:101490007DFA3320FFF77AFAC320FFF777FA3C2072
:1014A000FFF774FA10BD10B5AA20FFF76FFA5B20A2
:1014B000FFF76CFA0120FFF769FAE620FFF766FAFA
:1014C0000020FFF763FA0920FFF760FA0220FFF718
:1014D0005DFA4620FFF75AFA0020FFF757FA2B2053
:1014E000FFF754FACC20FFF751FA3320FFF74EFAFA
:1014F000C320FFF74BFA3C20FFF748FAAA20FFF77A
:1015000045FA9820FFF742FA0120FFF73FFAEA2058
:10151000FFF73CFA0020FFF739FA0A20FFF736FA06
:101520002320FFF733FA8120FFF730FA0320FFF77B
:101530002DFAFF20FFF72AFAFF20FFF727FA0020F5
:10154000FFF724FA1F20FFF721FAD520FFF71EFA34
:10155000FD20FFF71BFAB320FFF718FAA320FFF7CF
:1015600015FACC20FFF712FA3320FFF70FFAC32049
:10157000FFF70CFA3C20FFF709FA10BD10B5AA20BE
:10158000FFF704FA5B20FFF701FA0120FFF7FEF9ED
:10159000E620FFF7FBF90020FFF7F8F90920FFF735
:1015A000F5F90220FFF7F2F94620FFF7EFF90020E6
:1015B000FFF7ECF92B20FFF7E9F9CC20FFF7E6F96C
:1015C0003320FFF7E3F9C320FFF7E0F93C20FFF7F2
:1015D000DDF9AA20FFF7DAF99820FFF7D7F9012003
:1015E000FFF7D4F9EA20FFF7D1F90020FFF7CEF991
:1015F0000A20FFF7CBF92320FFF7C8F98120FFF776
:10160000C5F90320FFF7C2F9FF20FFF7BFF9FF205C
:10161000FFF7BCF90020FFF7B9F91F20FFF7B6F973
:10162000B120FFF7B3F9A820FFF7B0F9BE20FFF70C
:10163000ADF9AF20FFF7AAF9CC20FFF7A7F93320C7
:10164000FFF7A4F9C320FFF7A1F93C20FFF79EF9AB
:1016500010BD10B5AA20FFF799F95B20FFF796F9A6
:101660000220FFF793F9AD20FFF790F90020FFF774
:101670008DF90920FFF78AF90320FFF787F9082081
:10168000FFF784F90020FFF781F92B20FFF77EF99F
:10169000CC20FFF77BF93320FFF778F9C320FFF761
:1016A00075F93C20FFF772F9AA20FFF76FF998202F
:1016B000FFF76CF90220FFF769F9B020FFF766F930
:1016C0000020FFF763F90A20FFF760F92320FFF7F6
:1016D0005DF98120FFF75AF90320FFF757F9FF2042
:1016E000FFF754F9FF20FFF751F90020FFF74EF9FB
:1016F0001F20FFF74BF9D520FFF748F9FD20FFF732
:1017000045F9B320FFF742F9A320FFF73FF9CC20BA
:10171000FFF73CF93320FFF739F9C320FFF736F91B
:101720003C20FFF733F910BD10B5AA20FFF72EF9C2
:101730005B20FFF72BF90220FFF728F9AD20FFF718
:1017400025F90020FFF722F90920FFF71FF90320F0
:10175000FFF71CF90820FFF719F90020FFF716F929
:101760002B20FFF713F9CC20FFF710F93320FFF7F8
:101770000DF9C320FFF70AF93C20FFF707F9AA206B
:10178000FFF704F99820FFF701F90220FFF7FEF8B0
:10179000B020FFF7FBF80020FFF7F8F80A20FFF76A
:1017A000F5F82320FFF7F2F88120FFF7EFF8032088
:1017B000FFF7ECF8FF20FFF7E9F8FF20FFF7E6F866
:1017C0000020FFF7E3F81F20FFF7E0F8B120FFF754
:1017D000DDF8A820FFF7DAF8BE20FFF7D7F8AF2032
:1017E000FFF7D4F8CC20FFF7D1F83320FFF7CEF87D
:1017F000C320FFF7CBF83C20FFF7C8F810BD10B5A9
:10180000AA20FFF7C3F85B20FFF7C0F80020FFF71E
:10181000BDF87220FFF7BAF80020FFF7B7F83A20BA
:10182000FFF7B4F80020FFF7B1F8BE20FFF7AEF8DD
:101830000020FFF7ABF85D20FFF7A8F8CC20FFF7FA
:10184000A5F83320FFF7A2F8C320FFF79FF83C204C
:10185000FFF79CF8AA20FFF799F89820FFF796F871
:101860000020FFF793F87A20FFF790F80020FFF7A9
:101870008DF83A20FFF78AF82320FFF787F88120B8
:10188000FFF784F80320FFF781F8FF20FFF77EF8C9
:10189000FF20FFF77BF80020FFF778F81F20FFF705
:1018A00075F8D520FFF772F8FD20FFF76FF8B32029
:1018B000FFF76CF8A320FFF769F8CC20FFF766F874
:1018C0003320FFF763F8C320FFF760F83C20FFF7F1
:1018D0005DF810BD10B5AA20FFF758F85B20FFF7A0
:1018E00055F80020FFF752F87220FFF74FF800205C
:1018F000FFF74CF83A20FFF749F80020FFF746F8C9
:10190000BE20FFF743F80020FFF740F85D20FFF707
:101910003DF8CC20FFF73AF83320FFF737F8C32023
:10192000FFF734F83C20FFF731F8AA20FFF72EF834
:101930009820FFF72BF80020FFF728F87A20FFF710
:1019400025F80020FFF722F83A20FFF71FF82320A0
:10195000FFF71CF88120FFF719F80320FFF716F8AE
:10196000FF20FFF713F8FF20FFF710F80020FFF724
:101970000DF81F20FFF70AF8CA20FFF707F8A72085
:10198000FFF704F8B020FFF701F8DC20FEF7FEFFB8
:10199000CC20FEF7FBFF3320FEF7F8FFC320FEF755
:1019A000F5FF3C20FEF7F2FF10BD10B5AA20FEF7B0
:1019B000EDFF5B20FEF7EAFF0120FEF7E7FF2020A6
:1019C000FEF7E4FF0020FEF7E1FF3A20FEF7DEFF1E
:1019D0000120FEF7DBFF8020FEF7D8FF0020FEF796
:1019E000D5FF5D20FEF7D2FFCC20FEF7CFFF3320DE
:1019F000FEF7CCFFC320FEF7C9FF3C20FEF7C6FF71
:101A0000AA20FEF7C3FF9820FEF7C0FF0120FEF7D3
:101A1000BDFF2820FEF7BAFF0020FEF7B7FF3A20EF
:101A2000FEF7B4FF2320FEF7B1FF8120FEF7AEFFE3
:101A30000320FEF7ABFFFF20FEF7A8FFFF20FEF715
:101A4000A5FF0020FEF7A2FF1F20FEF79FFFD52075
:101A5000FEF79CFFFD20FEF799FFB320FEF796FFEF
:101A6000A320FEF793FFCC20FEF790FF3320FEF774
:101A70008DFFC320FEF78AFF3C20FEF787FF10BDD5
:101A800010B5AA20FEF782FF5B20FEF77FFF012042
:101A9000FEF77CFF2020FEF779FF0020FEF776FF9F
:101AA0003A20FEF773FF0120FEF770FF8020FEF75B
:101AB0006DFF0020FEF76AFF5D20FEF767FFCC2078
:101AC000FEF764FF3320FEF761FFC320FEF75EFFE1
:101AD0003C20FEF75BFFAA20FEF758FF9820FEF798
:101AE00055FF0120FEF752FF2820FEF74FFF002090
:101AF000FEF74CFF3A20FEF749FF2320FEF746FF92
:101B00008120FEF743FF0320FEF740FFFF20FEF792
:101B10003DFFFF20FEF73AFF0020FEF737FF1F20B2
:101B2000FEF734FFCD20FEF731FFD120FEF72EFF68
:101B3000B920FEF72BFFEC20FEF728FFCC20FEF7A4
:101B400025FF3320FEF722FFC320FEF71FFF3C20B6
:101B5000FEF71CFF10BD10B5AA20FEF717FF71207D
:101B6000FEF714FF0020FEF711FF0320FEF70EFF23
:101B70000020FEF70BFF5920FEF708FF0120FEF7BB
:101B800005FF8120FEF702FF0020FEF7FFFEB220D6
:101B9000FEF7FCFE0120FEF7F9FEB720FEF7F6FE89
:101BA0000220FEF7F3FEB320FEF7F0FE0020FEF762
:101BB000EDFE6D20FEF7EAFECC20FEF7E7FE3320B7
:101BC000FEF7E4FEC320FEF7E1FE3C20FEF7DEFE5A
:101BD00010BD10B5AA20FEF7D9FE7120FEF7D6FE83
:101BE0000020FEF7D3FE0320FEF7D0FE0020FEF714
:101BF000CDFEB220FEF7CAFE0020FEF7C7FE002091
:101C0000FEF7C4FE0120FEF7C1FE0A20FEF7BEFE6D
:101C10000020FEF7BBFE3620FEF7B8FE0220FEF7DE
:101C2000B5FEB320FEF7B2FE0020FEF7AFFE6D203A
:101C3000FEF7ACFECC20FEF7A9FE3320FEF7A6FE91
:101C4000C320FEF7A3FE3C20FEF7A0FE10BD10B59A
:101C5000AA20FEF79BFE7120FEF798FE0020FEF7FB
:101C600095FE0320FEF792FE0020FEF78FFE59201E
:101C7000FEF78CFE0020FEF789FE3720FEF786FE79
:101C80000020FEF783FEB220FEF780FE0020FEF764
:101C90007DFE6D20FEF77AFE0220FEF777FEB32070
:101CA000FEF774FE0020FEF771FEB420FEF76EFE14
:101CB000CC20FEF76BFE3320FEF768FEC320FEF754
:101CC00065FE3C20FEF762FE10BD10B5AA20FEF7AF
:101CD0005DFE7120FEF75AFE0020FEF757FE03203E
:101CE000FEF754FE0020FEF751FE5920FEF74EFE8F
:101CF0000020FEF74BFE0020FEF748FE0020FEF716
:101D000045FEB220FEF742FE0020FEF73FFE3620E1
:101D1000FEF73CFE0220FEF739FEB320FEF736FE4A
:101D20000020FEF733FEB420FEF730FECC20FEF795
:101D30002DFE3320FEF72AFEC320FEF727FE3C20AF
:101D4000FEF724FE10BD704770B50446B4F57A7FE7
:101D500000DB0024002C7CDDAA20FEF717FE5B20B0
:101D6000FEF714FE0120FEF711FEE220FEF70EFE44
:101D70000020FEF70BFE3A20FEF708FE0220FEF7D9
:101D800005FE4620FEF702FE0020FEF7FFFD5D2067
:101D9000FEF7FCFDCC20FEF7F9FD3320FEF7F6FD43
:101DA000C320FEF7F3FD3C20FEF7F0FDAA20FEF76E
:101DB000EDFD9820FEF7EAFD0120FEF7E7FDEA20A1
:101DC000FEF7E4FD0020FEF7E1FD3F20FEF7DEFD1B
:101DD0002320FEF7DBFD8120FEF7D8FD0320FEF770
:101DE000D5FDFF20FEF7D2FDFF20FEF7CFFD00203E
:101DF000FEF7CCFD1F20FEF7C9FD642094FBF0F038
:101E00003030C5B22846FEF7C1FD642094FBF0F1E6
:101E100000FB114084B20A2094FBF0F03030C5B2D0
:101E20002846FEF7B3FD0A2094FBF0F100FB1140B9
:101E30003030C5B22846FEF7A9FDCC20FEF7A6FD3E
:101E40003320FEF7A3FDC320FEF7A0FD3C20FEF7E4
:101E50009DFD70BD10B50446AA20FEF797FD7020C9
:101E6000FEF794FD0120FEF791FD0020FEF78EFDA8
:101E7000611CC8B2FEF78AFD0020FEF787FD5020E6
:101E8000FEF784FD0020FEF781FDE220FEF77EFDD7
:101E9000CC20FEF77BFD3320FEF778FDC320FEF754
:101EA00075FD3C20FEF772FD10BD10B5AA20FEF7AF
:101EB0006DFD9A20FEF76AFD0020FEF767FDCC203D
:101EC000FEF764FD3320FEF761FDC320FEF75EFDE3
:101ED0003C20FEF75BFD10BD10B5AA20FEF756FDB5
:101EE0009A20FEF753FDFF20FEF750FDCC20FEF7B1
:101EF0004DFD3320FEF74AFDC320FEF747FD3C2091
:101F0000FEF744FD10BD10B5FFF74CF90120FFF7B7
:101F100069F9FFF7EBF9FFF754FAFFF7C4FAFFF797
:101F20002DFBFFF796FBFFF7FFFBFFF768FCFFF7C2
:101F3000D1FCFFF73AFDFFF7A3FD0120FFF704FFF7
:101F400010BD10B50446102C34D1F8480078002894
:101F500020DDF6480078401EF4490870F4A25021B4
:101F600040F21620FFF746F8F24800880A2811DBF5
:101F7000F048008864280EDAEE4800880A2190FBB9
:101F8000F1F0EC49088008460278502140F2162012
:101F9000FFF750F871E0E74800880A2190FBF1F064
:101FA000E449088008460278502140F21620FFF7E5
:101FB0005AF862E0112C1FD1DC48007800285CDD63
:101FC0000020DA490870DAA2502140F21620FFF70B
:101FD00011F8D8480088D84908800846028850215E
:101FE0004FF42F70FFF75FF8D3480088D34908609B
:101FF0000120D349087040E00A2C3EDACB48007833
:1020000003283ADAC9480078401CC8490870C8A2B9
:10201000502140F21620FEF7EDFFC4480078012859
:1020200008D1C44804800278502140F21620FFF7FE
:1020300001F822E0BD48007802280FD1BD48008891
:1020400000EB800004EB4000BA49088008460278A3
:10205000502140F21620FFF706F80EE0B548008840
:1020600000EB800004EB4000B2490880084602887B
:10207000502140F21620FFF716F810BD10B5B148F8
:102080000078002826D00020AE490870AE4840787D
:1020900078281FD1AC48C0793C28FAD1AA48C0782A
:1020A000122818D1A94800780028F2D1A848007851
:1020B0000028EED1A74800780128EAD18021A6485F
:1020C00002F0A6FD08B9012000E000200128E0D1BF
:1020D0009E490870A8E09C48C078132803D10020CE
:1020E0009A490870A0E09848C07820280DD19BA29A
:1020F00080213020FEF77EFF23209A4908709FED53
:102100009A0A9A4880ED000A8EE08F48C07821280C
:102110000DD197A280213020FEF76CFF2D20914930
:1021200008709FED910A914880ED000A7CE0864896
:10213000C07822280DD190A280213020FEF75AFFCE
:102140003720884908709FED880A884880ED000A8A
:102150006AE07D48C078232857D17E480078401C2B
:102160007C49087008460078032801DD00200870CB
:102170007848007830B101280FD0022818D0032801
:102180002CD120E07EA24FF4D0714FF49A70FEF76C
:1021900031FF00207C49087021E07CA24FF4D0710F
:1021A0004FF49A70FEF726FF00207749087016E07A
:1021B00078A24FF4D0714FF49A70FEF71BFF012004
:1021C000714908700BE075A24FF4D0714FF49A700A
:1021D000FEF710FF00206C49087000E000BF00BF50
:1021E0005C48007802F048FA09226E496E48FEF712
:1021F000DAFB5848007818B156480078032813D104
:1022000000210846FEF76AFC0EE04F48C0782428FB
:1022100006D14FF4D0714FF4CA70FEF7E7FD03E02A
:102220004949C878FFF78DFE10BD08B54FF47A70A4
:1022300000F0DAFD1F214FF6FF70FEF7AAFD3220F5
:10224000FEF70EFE00210846FEF7D0FD57A2002142
:102250004FF4AA70FEF7CEFE55A200212820FEF70B
:10226000C9FE1F210846FEF794FD002040F28A2394
:102270004FF6FF7204210090FEF7FFFD1F210020A2
:10228000FEF787FD1C2340F27122042140F23F201B
:10229000FEF7D0FC182340F26D22082140F24320C3
:1022A000FEF7C8FC17234FF41E720921D01FFEF75A
:1022B000C1FC1F214FF6FF70FEF76BFD1A2340F2A1
:1022C0006F22062140F24120FEF7B4FC17234FF4A1
:1022D0001B7209214FF41170FEF7FFFC152340F229
:1022E00076220B21D01EFEF7F8FC134802885021FD
:1022F0004FF42F70FEF7D7FE21A24FF4D0714FF4A8
:102300009A70FEF777FE4FF4D0714FF4CA70FEF763
:102310006DFD2BA24FF4D0714FF4CA70FEF76AFE28
:1023200000210846FEF762FD08BD00004A000020BB
:10233000202020004C0000203E000020440000200F
:102340004800002039000020180200203B00002037
:10235000400000203100002000140240B5CDCBD950
:10236000000000003000002000000000B400002049
:10237000D6D0CBD900000000B8DFCBD900000000D8
:10238000D3ADB1F6000000000C010020CBCDB2CDE2
:1023900000000000CCF8CEE800000000B6D4BBB0CE
:1023A000000000006805002000500040303031007F
:1023B000D0C2BDAEBBAABFC6D6C7B4B40000000031
:1023C000D7C0BAC50000000010B58AB0044601218C
:1023D000022002F0F9FD01220A21424802F041FCEC
:1023E0004FF48060089001208DF8250000208DF8C2
:1023F000260002208DF8240008A93A4802F0A6FB26
:102400000121022002F0E0FD01220B21354802F0FB
:1024100028FC4FF40060089001208DF82500002072
:102420008DF8260002208DF8240008A92D4802F01E
:102430008DFB0121084602F0E9FD4FF47A7090FB14
:10244000F4F006905320ADF814000020ADF81C0005
:10245000ADF8160005A94FF0804002F06CFF22494C
:10246000069808806020ADF800000120ADF8020059
:1024700000200290ADF80C0069464FF0804003F058
:1024800075F869464FF0804003F0D6F80821C80679
:1024900003F089F90821C80603F08EF901218807A5
:1024A00002F0B4FF0121880702F0CEFF0AB010BD90
:1024B00070B504460D460C4800886043642190FBCB
:1024C000F1F631464FF0804003F027F906480088C6
:1024D0006843642190FBF1F631464FF0804003F0F1
:1024E0001EF970BD000402404E0000201CB5012101
:1024F000202002F069FD0420009002208DF80500E4
:1025000001208DF8040000208DF806006946564829
:1025100002F01CFB0121202002F056FD012000905A
:1025200002208DF8050001208DF8040000208DF8B0
:10253000060069464C4802F009FB0121202002F008
:1025400043FD1020009002208DF8050001208DF839
:10255000040000208DF806006946434802F0F6FAB0
:102560000121202002F030FD0820009002208DF88B
:10257000050001208DF8040000208DF80600694652
:10258000394802F0E3FA0121202002F01DFD02206B
:1025900000908DF8050001208DF8040000208DF8D2
:1025A00006006946304802F0D1FA0121202002F0ED
:1025B0000BFD2020009002208DF8050001208DF8F1
:1025C000040000208DF806006946274802F0BEFA94
:1025D0001CBD70B506460C461546012E04D10121DE
:1025E000214802F031FB03E001211F4802F02AFBE1
:1025F00024B904211C4802F027FB03E004211A48F7
:1026000002F020FB012D04D11021174802F01CFB21
:1026100003E01021144802F015FB70BD70B50646AA
:102620000C461546012E04D102210F4802F00CFB86
:1026300003E002210C4802F005FB24B908210A48F6
:1026400002F000FB03E00821074802F0FDFA012D2B
:1026500004D12021044802F0F7FA03E020210248C7
:1026600002F0F0FA70BD00000014024000B589B01D
:102670000121084602F0DBFC02220621874802F015
:10268000F0FA02220721854802F0EBFA01A802F0D5
:10269000A5FAC020019002208DF8080001A97F480A
:1026A00002F054FA0121022002F0B0FC7C4802F052
:1026B00095FD06A802F073FE0020ADF818005F201B
:1026C00007900020ADF82000ADF81A0006A9744864
:1026D00002F031FE00231A460321714803F09FFBEC
:1026E00003A803F036FA0620ADF8140003A96C48DD
:1026F00003F0F8F900206A49243108600121684894
:1027000002F0A2FE0121084602F05EFC0222002136
:10271000624802F0A6FA02220121604802F0A1FA02
:1027200001A802F05BFA0320019002208DF8080056
:1027300001A95A4802F00AFA0121082002F066FCB9
:10274000584802F04BFD06A802F029FE0020ADF823
:1027500018005F2007900020ADF82000ADF81A00A7
:1027600006A9504802F0E7FD00231A4603214D4810
:1027700003F055FB03A803F0ECF90620ADF81400B4
:1027800003A9484803F0AEF9002046492431086007
:102790000121444802F058FE0121084602F014FCD1
:1027A00001220C213D4802F05CFA4FF48050019068
:1027B00002208DF8080000208DF80B0001A9374891
:1027C00002F0C4F90121084602F031FC364802F05B
:1027D00005FD47F2305007900020ADF81800ADF825
:1027E0002000ADF81A0006A92F4802F0A4FD00232E
:1027F0001A4619462C4803F0E7FA00212A4802F04D
:10280000E3FD2948008940F47060274908810121CF
:10281000254802F019FE0121102002F0D5FB02220A
:102820000021224802F01DFA0120019002208DF8BB
:10283000080000208DF80B0001A91C4802F086F961
:102840000121042002F0E2FB194802F0C7FC47F224
:10285000305007900020ADF81800ADF82000ADF81A
:102860001A0006A9124802F066FD00231A4619460E
:102870000F4803F0A9FA00210D4802F0A5FD0C480D
:102880000830008840F4706009490831088001214F
:10289000074802F0D9FD09B000BD00000000024069
:1028A00000040040000C0040000001400010024005
:1028B000000800401CB50121202002F085FB4FF4E8
:1028C0004070009000208DF8040001208DF8070072
:1028D00069463D4802F03AF90121022002F074FBFA
:1028E0000320009000208DF8040001208DF80700DF
:1028F0006946364802F02AF90121202002F064FBE3
:10290000C020009000208DF8040001208DF8070001
:1029100069462D4802F01AF91CBD2DE9F0414FF42B
:102920008071294802F074F904464FF4007126487A
:1029300002F06EF905460121244802F069F90646C5
:102940000221224802F064F9074604EA05003040FB
:10295000384008B9012000E000201D490870BDE89A
:10296000F08110B54FF48071174802F051F9044618
:10297000204610BD10B54FF40071134802F048F91D
:102980000446204610BD10B50121104802F040F960
:102990000446204610BD10B502210C4802F038F95B
:1029A0000446204610BD10B54021074802F030F91A
:1029B0000446204610BD10B58021034802F028F9D6
:1029C0000446204610BD00000014024000040240EE
:1029D00050000020704700BFFEE700BFFEE700BFC9
:1029E000FEE700BFFEE770477047704710B500F084
:1029F000EDF900F025FB00F0A6FA00F037FECD4817
:102A00000168CD48006800F08BFEFFF737FBFFF749
:102A100084FFCA4890ED000AB5EEC00AF1EE10FA44
:102A200005D1C7480088401CC549088002E0002045
:102A3000C349088010BD10B5002440F22551C1489B
:102A400003F0FEFB40B3BF4803F038FB04467B2C89
:102A500005D10120BC4908800020BC4908807E2C9B
:102A600002D10020B8490880B7480088012813D156
:102A7000B749B64A12888C54B4480088401CB34900
:102A8000088008460088052806DB01F05DF901F0A2
:102A900050FA0020AD49088040F22771A94803F0A0
:102AA000CFFB28B1002240F22771A64803F08DFB2E
:102AB00010BD10B5002440F22551A64803F0C0FB1C
:102AC00040B3A44803F0FAFA04467B2C05D1012058
:102AD000A14908800020A14908807E2C02D1002055
:102AE0009D4908809C480088012813D198499B4A39
:102AF00012888C5499480088401C984908800846E0
:102B00000088052806DB01F01FF901F012FA002009
:102B10009249088040F227718E4803F091FB28B15A
:102B2000002240F227718B4803F04FFB10BD8C4808
:102B3000008800F02000002876D08948001D008819
:102B40008849894A12788854002085490880864837
:102B50000078401C8449087008460078042853D146
:102B60008248007801284FD10020814908707D48B3
:102B70000078AA280ED17B484078AA280AD1794843
:102B80008178C07801EB00207A49088001207849DB
:102B9000087024E073488078AA280ED17148C07864
:102BA000AA280AD16F480178407801EB00207149CA
:102BB000088001206E49087011E06A484078AA2810
:102BC0000DD168488078AA2809D16648C178007874
:102BD00001EB0020674908800120654908706448BE
:102BE000007801280DD164490870002063490880ED
:102BF00060480088B0F57A7F03DB40F2E7305D493A
:102C000008800020584908705548008800F00800E6
:102C100050B15348001D0088C1B25248524A127840
:102C2000815400204E490880704708B540F2255174
:102C3000534803F005FBE8B15148001D0088514995
:102C4000514A127888545148007828B14E4800788B
:102C5000401C4D4908700FE04A4800781B2805D1F8
:102C60000120494908704949087005E0002046499B
:102C7000087001E0BDF9000008BD10B5002440F265
:102C80002551434803F0DCFA70B1414803F016FACD
:102C9000044621463E4803F00DFA00BF80213C481F
:102CA00003F0B8FA0028F9D040F22771384803F051
:102CB000C7FA28B1002240F22771354803F085FA9F
:102CC00010BD10B540F22551324803F0B9FA10B3E7
:102CD0003048001D00883049087000202D490880C8
:102CE0002D480078AA2802D100202C4908702A48D3
:102CF00000782B49294A1278885428480078401CCB
:102D00002649087008460078082804D10020087079
:102D100001202449087040F225511E4803F090FA22
:102D200038B11C48001D00881B4908700020194953
:102D3000088010BDDC000020D8000020A00000208A
:102D400054000020001001405800002056000020D0
:102D50000E010020004400405C0000205A000020CA
:102D6000004800400C050020FF0000200201002068
:102D7000FE000020060100200401002008010020C0
:102D8000004C0040CC040020910000209B0000205B
:102D90000050004000140140330000203A000020A1
:102DA0001802002039000020FDF786FB01F0ACFC82
:102DB00001F088FC4FF47A7000F016F805E001F09D
:102DC000FBF901F0E9FBFDF7CAFBF8E714480068DE
:102DD00020B113480068401E11490860704700E0A8
:102DE000401E0028FCD1704701B54FF47A7100985D
:102DF00048430C490968B0FBF1F00949086000BF7D
:102E0000074800680028FBD108BD0648006804494F
:102E1000086000BF024800680028FBD1704700002E
:102E2000600000201400002000209FED4A1AB0EE40
:102E3000410A9FED481AF0EE410A474991ED001A08
:102E4000B8EEC11A45490A780978491C434B1970F4
:102E5000434901EB820181ED001A424991ED001ACC
:102E6000B8EEC11A40490A780978491C3E4B1970DE
:102E70003E4901EB820181ED001A384909780A299F
:102E800002D10021354A1170374909780A2902D147
:102E90000021354A1170002013E0314901EB800117
:102EA00091ED001A31EE001AB0EE410A2F4901EB04
:102EB000800191ED001A31EE201AF0EE410A411C1A
:102EC000C8B20A28E9DBB2EE041AC0EE011A28499A
:102ED000C1ED001AB2EE041AC0EE811A2549C1ED07
:102EE000001A70470020DFED1B0AB0EE600A22498D
:102EF000D1ED000A21490A780978491C1F4B197045
:102F00001F4901EB8201C1ED000A194609786429C5
:102F100002D100211A46117000200AE0184901EB85
:102F20008001D1ED000A70EE800AB0EE600A411C0B
:102F3000C8B26428F2DBDFED130A80EE201A1249D2
:102F400081ED001A704700B5FFF7CCFFFFF76CFF6B
:102F500000BD000000000000780000206800002094
:102F60003C0400207C000020690000206404002054
:102F70006C00002070000020A000002074000020E1
:102F8000AC0200200000C8426400002010B53A489E
:102F900000683A49088000213748243802F014FAC2
:102FA00037480068002805DA34480088404235492F
:102FB000086003E031480088324908603248406ABE
:102FC000324908800021304802F0FEF9304800689C
:102FD000002805DA2D48008840422E49086003E0A9
:102FE0002A4800882B49086010BD10B52A4802F015
:102FF000EFF92A494843224908600021264802F097
:10300000E3F91F4800684FF6FF7190FBF1F000B242
:1030100040421B490860224802F0DAF91F49484340
:103020001B49086000211E4802F0CEF918480068CC
:103030004FF6FF7190FBF1F000B21549086010BD2A
:1030400010B500F04EF817480068401C154908609C
:1030500008460068142190FBF1F201FB120008B948
:10306000FFF7C3FF0F480068C82804DD00200D49A2
:103070000860FFF78BFF10BD240800408C00002083
:103080008400002078000020000001408E00002015
:10309000880000207C00002000040040AAAAAA02A8
:1030A000000C00408000002030B502464FF6FF7053
:1030B000002413E015786840521C00230AE000F059
:1030C000010525B140104AF20105684000E04010BA
:1030D0005D1CEBB2082BF2DB651CECB28C42E9DB29
:1030E00030BD10B52DED048B3A480078401C3949AD
:1030F000087008460078032804DB00200870364872
:10310000FDF71CFC3548007807285FDB00203349B9
:1031100008703349087033488079052856D1314802
:103120000079314948702F48407908700846008876
:103130002E4908802B4880782D4908702948C0788E
:10314000487002212A48FFF7AFFF27490880084648
:10315000008826490988884238D125484078244982
:103160000978401A032816DB2248007848B920481D
:10317000007800EE100AB8EE400A1F4880ED000A01
:1031800021E01B48407800EE100AB8EE400A1A48C9
:1031900080ED000A17E016490978154A5278881818
:1031A00003F060FA41EC190B9FED140B53EC102B5C
:1031B00003F000F941EC180B03F0CAF800EE100A16
:1031C0000D4880ED000A00200E490870BDEC048B0C
:1031D00010BD00009000002095000020910000200C
:1031E0009B000020CC040020A400002092000020BE
:1031F0008C0400209C000020A000002000000000A3
:103200000000004094000020F94890ED004ADFEDF6
:10321000F94A24EE244A80ED004A90ED004AF6482F
:10322000D0ED004A9FEDF55A04EE854AF04880ED56
:10323000004AF34890ED004ADFEDEE4A24EE244ABE
:1032400080ED004A90ED004AEE48D0ED004A9FED37
:10325000EB5A04EE854AEA4880ED004AE44890EDD6
:10326000004AE948D0ED004A34EE644AB0EE440A20
:1032700031EE004AB0EE441A30EE614AB0EE443A04
:10328000F0EE401AB7EE004A20EE044ADFEDDF4AC6
:1032900004EE814ADFEDDD4A04EE834ADC4880ED2E
:1032A000004AD74890ED004ADA48D0ED004A34EEA3
:1032B000644AF0EE440A32EE204AB0EE442A30EE80
:1032C000E24AF0EE443AF0EE602AB7EE004A20EE11
:1032D000844ADFEDCE4A04EE824ADFEDCC4A04EEAA
:1032E000A34ACD4880ED004A704710B52DED088BFC
:1032F000CA48007818B1CA480078012805D19FED66
:10330000C30AC84880ED000A0CE0C44800780128D0
:1033100008D1C548007800EE100AB8EE400AC1484E
:1033200080ED000AC1480088B0F57A7F41DABF48D5
:10333000008878B3BD480088BD490988884238D1E3
:10334000BA480088C92807D0B8480088CF2803D0D9
:10335000B6480088D02802D100F0E8FA39E0B34836
:103360000088652813D0B148008866280FD0AF4880
:10337000008867280BD0AD480088682807D0AB4884
:103380000088692803D0A94800886A2803D100F082
:10339000B1FB1EE00DE0A549088800EBD071491093
:1033A000A0EB410111B900F0A5FB12E000F0BEFA5C
:1033B0000FE09E4800889E490988884205D19B48B5
:1033C000008810B900F01AFA03E04FF6FF70974931
:1033D0000880984890ED000ADFED970A20EE200A59
:1033E00080ED000A90ED000A8E48D0ED000A9FEDB6
:1033F000931A00EE810A8F4880ED000A90ED000AD2
:103400008F48D0ED000A30EE600A8E4880ED000A49
:10341000884890ED000A8A48D0ED000A30EE200A74
:10342000894880ED000A8948007802285ED08748E4
:10343000007801285AD17D480088B0F57A7F41DCB8
:103440007A48008878B379480088794909888842A1
:1034500038D176480088C92807D074480088CF281A
:1034600003D072480088D02802D100F08CFA3DE0E9
:103470006E480088652813D06C48008866280FD0F5
:103480006A48008867280BD068480088682807D0F9
:1034900066480088692803D0644800886A2803D1F8
:1034A00000F055FB22E00DE06049088800EBD07188
:1034B0004910A0EB410111B900F049FB16E000F002
:1034C00062FA13E0594800885949098888420DD1A9
:1034D0005648008850B980215D4801F099FB08B931
:1034E000012000E0002008B900F0B7F9554890ED40
:1034F000000A4548D0ED000A30EE608A39EE080A2D
:10350000B0EE409A78EE4A9AB0EE48AA9FED510A82
:1035100028EE000ADFED3D0A00EE890ADFED4E0AD3
:1035200000EEA90A4D4880ED000A474890ED000AD8
:103530003848D0ED000A70EE608A3AEEA80AF0EE44
:1035400040AA38EEEBBAF0EE68BA9FED420A28EED8
:10355000800ADFED2E0A00EEAA0ADFED3F0A00EE38
:103560008B0A3F4880ED000ABDEC088B10BD704708
:103570003C4890ED002AF2EE002A32EEC22A3A4888
:1035800080ED002A90ED002A30EE822AF0EE420A09
:1035900090ED002A32EE612AB0EE421A90ED002A38
:1035A000F0EE421A20480078232802D1B0EE040A37
:1035B0000CE01D4800782D2802D1B0EE0C0A05E081
:1035C00019480078372801D1B1EE020A264890ED5B
:1035D000002A20EE022ADFED0D2A02EEA02ADFEDFE
:1035E0001E2A02EE812A164880ED002A704700004C
:1035F000C8000020643B7F3F28010020A69B443B7D
:10360000CC0000202C0100206C00002000000000F5
:10361000D000002070000020D40000203B000020DB
:1036200050000020B00000203000002006010020E3
:103630003E000020B400002077BE7F3F6F12833A27
:10364000AC000020B8000020BC00002031000020A9
:10365000001402409A99993FCDCC4C3DC000002007
:10366000C4000020A0000020A800002010B52348BE
:10367000007860BBFFF77CFFFFF779FFFFF735FEAF
:103680001F4890ED000AB5EEC00AF1EE10FA0DD118
:103690001C4800884FF6FF71884207D11FED250AAC
:1036A000194880ED000A194880ED000A174890ED8E
:1036B000000ABDEEC00A164880ED000A124890EDDF
:1036C000000ABDEEC00A134880ED000A15E00B4861
:1036D0000078012811D1FFF797FD0F4890ED000AFF
:1036E000BDEEC00A0A4880ED000A0C4890ED000AC1
:1036F000BDEEC00A074880ED000A10BD0C01002095
:10370000A000002006010020C4000020C00000200E
:10371000D8000020DC000020D0000020D4000020D1
:1037200070B504460D46002C1BDA14F1640F01DA63
:103730006FF0630414F1030F01DD6FF00204002247
:1037400001210846FEF745FF64422B48008860438C
:10375000642190FBF1F631464FF0804001F0DDFF2F
:1037600015E0642C00DD6424032C00DA032400221D
:1037700011460120FEF72DFF1F4800886043642199
:1037800090FBF1F631464FF0804001F0C6FF002D6E
:103790001BDA15F1640F01DA6FF0630515F1030F01
:1037A00001DD6FF00205002201210846FEF736FF19
:1037B0006D42114800886843642190FBF1F6314660
:1037C0004FF0804001F0ABFF15E0642D00DD642573
:1037D000032D00DA0325002211460120FEF71EFF0B
:1037E000054800886843642190FBF1F631464FF0AC
:1037F000804001F094FF70BD4E000020FA48007830
:1038000050BBFA480068401CF84908600846006848
:10381000B0F5FA7F20DD9FEDF60AF64880ED000A4C
:10382000F54890ED000AF1EE040AB4EEE00AF1EE7C
:1038300010FA11D2F14890ED000AF1EE040AB4EE4C
:10384000E00AF1EE10FA07D20120E74908700020E3
:10385000E6490860EA490870704710B5E248007808
:1038600001281BD1BAEE0E0AE64880ED000AB2EE3E
:103870000E0AE54880ED000AE4480068401CE34970
:1038800008600846006840F6C41188424DDD0020FB
:10389000DE4908600220D449087046E0D24800782A
:1038A000022828D1BAEE0E0AD64880ED000AB2EE00
:1038B0000E0AD54880ED000AD54890ED000AFFEECB
:1038C000000AB4EEE00AF1EE10FA2EDD90ED000AE7
:1038D000F7EE000AB4EEE00AF1EE10FA25D2CD4878
:1038E00090ED000AB5EEC00AF1EE10FA1DD00320EB
:1038F000BD49087019E0BC480078032815D10020A4
:10390000B94908704FF6FF70C34908800020C349C9
:1039100008800846028850214FF42F70FDF7C3FB42
:103920009FEDB30ABE4880ED000A10BDBD48007887
:1039300040BBAE480068401CAC49086008460068BF
:10394000B0F5FA7F1EDD9FEDAA0AAA4880ED000AB5
:10395000A94890ED000AF1EE040AB4EEE00AF1EE97
:1039600010FA0FD2A54890ED000AF1EE040AB4EE69
:10397000E00AF1EE10FA05D20120AA4908700020F1
:103980009A490860704710B5A648007801281BD1F5
:10399000BAEE0E0A9B4880ED000AB2EE0E0A9A4873
:1039A00080ED000AA0480068401C9F490860084656
:1039B000006840F6C411884205DD00209A4908607D
:1039C00002209849087094E096480078022827D190
:1039D0009FED870A8B4880ED000A9FED850A8A4893
:1039E00080ED000A8021914801F012F9012800D1F0
:1039F00000E000208E49087008460078012878D140
:103A00008C480068401C8B49086008460068B0F587
:103A10007A7F6EDD0020086003208249087068E02C
:103A20008048007803281BD19FED710A754880ED0E
:103A3000000A9FED6F0A744880ED000A6B48006829
:103A4000401C6A4908600846006840F2DC51884220
:103A50004FDD00206549086004207249087048E085
:103A600070480078042828D1BAEE0E0A654880ED27
:103A7000000AB2EE0E0A644880ED000A644890ED38
:103A8000000AFFEE000AB4EEE00AF1EE10FA30DDB3
:103A900090ED000AF7EE000AB4EEE00AF1EE10FA3B
:103AA00027D25C4890ED000AB5EEC00AF1EE10FA9C
:103AB0001FD005205B4908701BE05A480078052894
:103AC00017D10020574908704FF6FF7052490880FF
:103AD0000020524908805848007800EE100AB8EEDD
:103AE000400A444880ED000A9FED410A4C4880EDB1
:103AF000000A10BD5148007840BB3C480068401C9B
:103B00003A49086008460068B0F5FA7F1EDD9FED6F
:103B1000380A384880ED000A374890ED000AF1EE87
:103B2000040AB4EEE00AF1EE10FA0FD2334890ED39
:103B3000000AF1EE040AB4EEE00AF1EE10FA05D242
:103B400001203E490870002028490860704710B5E0
:103B50003A48007801281BD1B2EE0E0A294880EDC0
:103B6000000ABAEE0E0A284880ED000A34480068C0
:103B7000401C334908600846006840F6C41188427A
:103B800005DD00202E49086002202C490870C4E0A1
:103B90002A480078022857D19FED150A194880ED70
:103BA000000A9FED130A184880ED000A80211F4883
:103BB00001F02EF8012800D100E000201C49087017
:103BC0000846007801280ED11E480068401C1D4997
:103BD000086008460068B0F57A7F04DD00200860C0
:103BE00003201649087098E0E2000020F800002049
:103BF00000000000B00000206C00002070000020D9
:103C00003B000020B8000020BC000020F400002091
:103C1000A8000020A0000020060100203E00002097
:103C2000B4000020E0000020EC000020001402405E
:103C3000FC000020E400002030000020E100002013
:103C4000F0000020E80000203448007803281BD151
:103C50001FED190A324880ED000A1FED1B0A31489A
:103C600080ED000A30480068401C2F490860084673
:103C7000006840F2DC5188424FDD00202A4908608C
:103C800004202649087048E024480078042828D1F8
:103C9000B2EE0E0A224880ED000ABAEE0E0A214862
:103CA00080ED000A214890ED000AFFEE000AB4EE14
:103CB000E00AF1EE10FA30DD90ED000AF7EE000AAE
:103CC000B4EEE00AF1EE10FA27D2194890ED000A9E
:103CD000B5EEC00AF1EE10FA1FD005200F490870AA
:103CE0001BE00E480078052817D100200B4908700A
:103CF0004FF6FF700F49088000200F4908800F48D9
:103D0000007800EE100AB8EE400A0D4880ED000A77
:103D10001FED490A0B4880ED000A10BDE1000020AC
:103D2000B8000020BC000020F8000020A8000020FF
:103D3000A0000020060100203E00002030000020EE
:103D4000B0000020B40000200020FE490860486058
:103D50008860C860086148618861C861C86208639A
:103D600048638863F848407806280ED1F648807882
:103D700007280AD1F448C078082806D1F24800790B
:103D8000092802D101200860D2E0EF48407868B9E4
:103D9000ED488078032809D1EB48C07830B9EA486B
:103DA000007918B90120E7494860C1E0E648407849
:103DB00068B9E548807850B9E348C078032806D14F
:103DC000E148007918B90120DE498860B0E0DE489A
:103DD000407868B9DC48807850B9DB48C078012861
:103DE00006D1D948007918B90120D649C8609FE0AA
:103DF000D548407870B9D448807801280AD1D24893
:103E0000C078072806D1D048007918B90120CD49DB
:103E100008628DE0CC48407870B9CB4880780128A2
:103E20000AD1C948C078012806D1C748007918B915
:103E30000120C44908617BE0C348407870B9C2489A
:103E4000807801280AD1C048C078032806D1BE482E
:103E5000007918B90120BB49486169E0BA48407847
:103E600070B9B948807803280AD1B748C0780128CA
:103E700006D1B548007918B90120B249886157E0E8
:103E8000B148407870B9B048807803280AD1AE486C
:103E9000C078032806D1AC48007918B90120A94997
:103EA000C86145E0A848407870B9A74880780928DB
:103EB0000AD1A548C078022806D1A348007918B9CC
:103EC0000120A049C86233E09F48407870B99E48FD
:103ED000807809280AD19C48C078032806D19A48DE
:103EE000007918B901209749086321E09648407885
:103EF00070B99548807809280AD19348C07801287C
:103F000006D19148007918B901208E4948630FE025
:103F10008D48407860B98C488078092808D18A4853
:103F2000C07828B98848007910B90120854988638C
:103F3000704710B59FED850A854880ED000A8548D9
:103F400080ED000A7F48006801280CD100207D49DF
:103F50000860814890ED000AF0EE000A30EE200A79
:103F600080ED000AABE07748406801280CD10020C2
:103F700074494860784890ED000AF0EE000A30EE8F
:103F8000600A80ED000A9AE06E48806801280DD131
:103F900000206C498860BBEE090A6E4880ED000A7B
:103FA000B3EE090A6A4880ED000A88E06548C068F7
:103FB00001280DD100206349C860B3EE090A6548A5
:103FC00080ED000ABBEE090A614880ED000A76E048
:103FD0005C480069012806D100205A490861012087
:103FE0005E4908706BE057484069012806D10020FF
:103FF0005449486101205A49087060E0514880697D
:10400000012806D100204F498861012055490870D8
:1040100055E04C48C069012806D100204949C861D3
:104020000120514908704AE04648C06A01280BD176
:1040300000204449C86201204C4908709FED430AA2
:10404000454880ED000A3AE03E48006B012811D156
:1040500000203C490863454908709FED3C0A3E48F2
:1040600080ED000A00210846FCF738FD0120404998
:10407000087024E03348406A012803D10020314908
:1040800048621CE02F48006A012803D100202D4916
:10409000086214E02B48406B012806D10020294912
:1040A000486301203349087009E02648806B0128E5
:1040B00005D100202349886301202F490870264834
:1040C00090ED000ADFED2D0AB4EEE00AF1EE10FAF1
:1040D00003DB9FED2A0A80ED000A1F4890ED000ADD
:1040E000DFED270AB4EEE00AF1EE10FA03D89FEDF7
:1040F000240A80ED000A1948007801280AD19FEDB2
:10410000130A154880ED000A1E4880ED000A1E487B
:1041100080ED000A104890ED000A0E48D0ED000A2C
:1041200030EE200A184880ED000A0B4890ED000A96
:104130000748D0ED000A30EE200A124880ED000A50
:1041400024E000002C0500200E01002000000000EB
:10415000200100201C010020240100200D0100206E
:104160001401002015010020160100200C01002080
:104170002F0000201701002018010020000020421D
:10418000000020C22C010020280100201FED110A90
:10419000064880ED000A064880ED000ABCEEC00A21
:1041A00010EE100A0349087010BD00002001002025
:1041B0001C0100200D01002008B59E48007830BB8E
:1041C0009D48007858B99D480078012807D100F033
:1041D00063FA09229A499B48FCF7E5FB12E19648ED
:1041E00000780128FAD10620974908701A209749CB
:1041F000087001209649088064209649088047F29B
:10420000305095490880012094490870FAE08948A7
:10421000007802281BD192480078052190FBF1F22A
:1042200001FB12000B30884908701920874908707B
:10423000012087490880642086490880002086493B
:10424000088001208549087086490870DAE07948BD
:1042500000780128C2D18448008840F6B8318842ED
:1042600022DD82480078F8B981480078E0B98148B9
:104270000078012818D180480078A8B90120724937
:1042800008701A2071490870012071490880642063
:10429000704908804FF47A606F49088001206F49A7
:1042A000087076490870ADE0754890ED000AB5EEEB
:1042B000C00AF1EE10FA1AD070480078012816D121
:1042C0000220614908701A20604908700120604985
:1042D000088064205F4908804FF4FA605E490880D6
:1042E00001205E4908700020644908708AE0534844
:1042F000007801282ED15D48007858BB5C480078D2
:1043000040BB5C480078012824D15B48007808BB9A
:1043100048480078012803D14FF47A70FEF764FD15
:104320004648007801286DD10320474908701A20BB
:1043300046490870012046490880642045490880A4
:1043400041F27070444908800120444908704D4989
:10435000087057E039480078D0B94A4800780128F9
:1043600016D10220384908701A20384908700120F7
:10437000374908806420374908804FF4FA6036498D
:10438000088001203549087000203E49087039E056
:1043900036480078022803D035480078022816D124
:1043A0000520294908701A20284908700120284949
:1043B00008806420274908804FF4FA602649088065
:1043C00001202649087000202F4908701AE027486C
:1043D0000078032803D026480078032812D104204F
:1043E000194908701A2019490870012018490880D5
:1043F00064201849088041F288301749088001205C
:104400001649087015480078012812D10020134978
:1044100008701148008800900E4803880C480288F4
:104420000A48007841B208480078FCF78DFB17492C
:10443000087008BD310000200C0100205000002051
:1044400068050020005000403301002034010020A6
:1044500036010020380100203A01002031010020FF
:10446000540100203C01002054000020E000002006
:10447000E10000203B000020E2000020300100208D
:10448000640000203E0100203F0100203501002093
:1044900010B504469FED720A724880ED000A9FED48
:1044A000700A714880ED000A2046FEF79DFC10BDA1
:1044B00010B50446B3EE0E0A6A4880ED000AB3EE6A
:1044C0000E0A694880ED000A2046FEF78DFC9FED3C
:1044D000640A644880ED000A9FED610A624880ED3D
:1044E000000AC820FEF780FC10BD10B50446BBEEE4
:1044F0000E0A5C4880ED000ABBEE0E0A5A4880EDB9
:10450000000A2046FEF770FC9FED550A554880EDE5
:10451000000A9FED530A544880ED000AC820FEF7B8
:1045200063FC10BD10B50446BBEE0E0A4D4880ED8D
:10453000000AB3EE0E0A4C4880ED000A2046FEF752
:1045400053FC9FED470A474880ED000A9FED440A5F
:10455000454880ED000AC820FEF746FC10BD10B5A6
:104560000446B3EE0E0A3F4880ED000ABBEE0E0A89
:104570003D4880ED000A2046FEF736FC9FED380AE4
:10458000384880ED000A9FED360A374880ED000A72
:10459000C820FEF729FC10BD10B534480078022869
:1045A0005CD133480078012858D132480078401C4B
:1045B000304908704DE04FF47A70FFF779FF4FF4FF
:1045C0007A70FFF792FF4FF47A70FFF7ABFF4FF46A
:1045D0007A70FFF7C4FF4FF47A70FFF7C0FF4FF413
:1045E0007A70FFF79FFF4FF47A70FFF77EFF4FF46A
:1045F0007A70FFF75DFF41F28830FFF793FF41F2D9
:104600008830FFF7ACFF4FF47A70FFF751FF4FF49B
:104610007A70FFF76AFF4FF47A70FFF783FF4FF469
:104620007A70FFF79CFF4FF47A70FFF798FF4FF412
:104630007A70FFF777FF4FF47A70FFF756FF4FF469
:104640007A70FFF735FF4FF4FA60FFF721FF601C27
:1046500084B2012CAFDB00200549087010BD0000BA
:1046600000000000280100202C0100203100002063
:104670003C010020540100205521104A11701E21D8
:104680005170114688700021D17011715171917172
:10469000D1717E21117270475520084908701F2082
:1046A00048700748007888700020C8700871487109
:1046B0008871C8717E20087270470000680500206C
:1046C000310000201CB50121402000F07DFC20209D
:1046D000009001208DF804008DF8060002208DF86E
:1046E00005006946074800F031FA2021054800F02E
:1046F000ABFA4FF4FA60FEF777FB2021014800F097
:10470000A1FA1CBD0018024010B58A4800F0BBFB9E
:1047100010BD10B5FBF723FF10BD10B5864800781B
:1047200001280AD10020844908708448027884480E
:10473000017884480078FDF74CFF83480078012811
:104740000AD10020804908707C4802787C480178B2
:104750007C480078FDF762FF10BD10B57B480078FB
:10476000012821D100207949087079480088FDF797
:104770002BFE78480078784909884843642190FBEB
:10478000F1F421464FF0804000F0C7FF73480078F5
:10479000714909884843642190FBF1F421464FF0A8
:1047A000804000F0BCFF19E06B48008800EB8000FF
:1047B0008000642190FBF1F421464FF0804000F02E
:1047C000ACFF6548008800EB80008000642190FB0E
:1047D000F1F421464FF0804000F0A1FF10BD10B56C
:1047E000002211460120FDF7F4FE002211460120AF
:1047F000FDF714FF584800886421484390FBF1F40A
:1048000021464FF0804000F088FF53480088642123
:10481000484390FBF1F421464FF0804000F07FFFC9
:1048200010BD10B5002201210846FDF7D2FE00227E
:1048300001210846FDF7F2FE47480088322148432F
:10484000642190FBF1F421464FF0804000F065FFB9
:104850004148008832214843642190FBF1F421460D
:104860004FF0804000F05BFF10BD10B50122002129
:104870001046FDF7AEFE10BD10B501220021104616
:10488000FDF7CCFE10BDF8B504460D46164634487B
:104890000078012810D100203149087008460089AD
:1048A0000F460090FB88BA88BF7879B22C4F787891
:1048B000FCF74AF939468872F8BD10B5FDF7B5FC2A
:1048C00010BD10B5FDF7DAFB10BD10B5FEF749F8C5
:1048D00024490870FEF74EF823490870FEF753F894
:1048E00022490870FEF757F821490870FEF75BF877
:1048F00020490870FEF75FF81F49087010BD0021BD
:104900001E4800F061FD14E01C48243000681C497A
:104910000860084600684C2801D9FFF7A6FF19482F
:10492000406A19490860084600684C2801D9FFF719
:10493000A3FFE9E7740500207F0100207E0100202D
:104940007D0100207C010020800100206201002008
:1049500060010020630100204E000020640100205F
:1049600066010020810100208201002083010020D7
:1049700084010020850100208601002000080040FD
:1049800074010020000001407801002033490143F8
:10499000334A1160704770B5002100230F22C4789C
:1049A00024B32F4C246804F4E064C4F5E064C4F339
:1049B0000721C1F10404E3B20A4144789C40E1B20A
:1049C0008478144021430C07210E264C057861554C
:1049D000047804F01F050124AC4005786D114FF0F8
:1049E000E02606EB8505C5F8004109E0047804F0EF
:1049F0001F040125A5401C4C0678761144F826506A
:104A000070BD1A4A0A400243154B1B1F1A607047BB
:104A100039B1134A121D12680243114B1B1D1A6053
:104A200006E00F4A121D126882430D4B1B1D1A60CF
:104A30007047042808D14FF0E021096941F00401D2
:104A40004FF0E022116107E04FF0E021096921F009
:104A500004014FF0E0221161704700000000FA05E8
:104A60000CED00E000E400E080E100E080FFFF1FCB
:104A700010B504468C48844208D10121084600F054
:104A8000E7FA0021012000F0E3FA5EE08748844263
:104A900008D10121022000F0DBFA0021022000F001
:104AA000D7FA52E08248844208D10121042000F064
:104AB000CFFA0021042000F0CBFA46E07D48844282
:104AC00008D10121082000F0C3FA0021082000F0DD
:104AD000BFFA3AE07848844208D10121102000F062
:104AE000B7FA0021102000F0B3FA2EE07348844298
:104AF00008D10121202000F0ABFA0021202000F095
:104B0000A7FA22E06E48844208D10121402000F03B
:104B10009FFA0021402000F09BFA16E06948844289
:104B200008D10121802000F093FA0021802000F0BC
:104B30008FFA0AE06448844207D10121801500F011
:104B400087FA0021A01500F083FA10BDF0B50A46DF
:104B500000210023002400BF3DE0012505FA01F3F8
:104B6000156805EA03049C4234D105684F0003260A
:104B7000BE40B543056015794E00B5400668354323
:104B800005601579012D02D01579022D16D18568A1
:104B90004F000326BE40B543856055794E00B540B1
:104BA000866835438560456801268E40B54345607B
:104BB000456896798E40B6B235434560C5684F006A
:104BC0000326BE40B543C560D5794E00B540C668E2
:104BD0003543C560491C1029BFD3F0BD4FF6FF71A6
:104BE00001600021017141718171C171704708B587
:104BF0004FF480320092009A0A430092009AC261F8
:104C0000C161009AC261C2690092C269009208BD86
:104C10000246002013690B4201D0012000E0002071
:104C200070470146086980B2704702460020536908
:104C30000B4201D0012000E0002070470146486986
:104C400080B2704701837047418370470AB1018386
:104C500000E0418370474161704742694A404261C8
:104C60007047F0B5002300244D07ED0E02FA05F35E
:104C7000CE1000F1200555F826504E07F70E0F26EE
:104C8000BE40B543CF1000F1200646F82750CE10A5
:104C900000F1200555F8265045EA0304CE1000F136
:104CA000200545F82640F0BD000002400004024007
:104CB00000080240000C02400010024000140240B4
:104CC00000180240001C024000200240FA48006820
:104CD00040F00100F84908600020F74908310860F9
:104CE000F5480068F5490840F3490860F448091D93
:104CF0000860081F006820F48020091F0860002059
:104D0000ED490C31086070470021EB4A921C11708C
:104D100011460870704710B501460022002300209C
:104D20004A11012A02D1E44C236808E0022A03D187
:104D3000E14C7034236802E0DF4C7434236801F0E6
:104D40001F02012494401C4201D0012000E00020F9
:104D500010BD38B5002000900024002500BF312090
:104D6000FFF7D9FF05460098401C00900098B0F569
:104D7000C06F01D0002DF2D03120FFF7CCFF08B179
:104D8000012400E00024204638BD01460020CA4A24
:104D9000106820F0F80040EAC10010607047C9496F
:104DA000086070470021C44A7032117011700128E8
:104DB00002D004280AD104E00121BF4A70321170E8
:104DC00005E00521BC4A7032117000E000BF00BF51
:104DD0007047BD4908607047BA4908667047B949CD
:104DE00088667047B74908677047B649C864704716
:104DF00002460020B04B0833186820F0EC6042EA0D
:104E000001031843AC4B083318607047024600207A
:104E1000A94B0833186820F0784042EA0103184390
:104E2000A54B08331860704701460020A24A08329B
:104E3000106820F003000843106070479E48083057
:104E4000006800F00C007047014600209A4A0832C2
:104E5000106820F0F0000843106070470146002001
:104E6000954A0832106820F4E050084310607047FB
:104E700001460020904A0832106820F4604040EA61
:104E8000C10010607047F0B5002100220024022507
:104E900000260223884F08373F6807F00C0121B134
:104EA000042905D0082937D105E0884F076036E08E
:104EB000874F076033E0804F3F1D3F68C7F3805640
:104EC0007D4F3F1D3F6807F03F036EB1804FB7FB3A
:104ED000F3F7DFF8E4C10CF1040CDCF800C0CCF30C
:104EE000881C07FB0CF40CE0784FB7FBF3F7DFF8F6
:104EF000C8C10CF1040CDCF800C0CCF3881C07FB23
:104F00000CF46D4F3F1D3F68C7F301477F1C7D00C8
:104F1000B4FBF5F7076002E06C4F076000BF00BF0D
:104F2000654F08373F6807F0F0010909694F7A5C5F
:104F30000768D7404760604F08373F6807F4E05183
:104F4000890A644F7A5C4768D74087605A4F0837B0
:104F50003F6807F46041490B5E4F7A5C4768D74071
:104F6000C760F0BD002100F44072B2F5407F0AD165
:104F7000514A0832116821F4F811574A024011438E
:104F80004D4A083211604C4A70321268C0F30B036C
:104F90001A43494B70331A6070474B4944390860D3
:104FA000704749494039086070470021421E11434B
:104FB00070470021421E41EA02217047002101434F
:104FC000704746490860704739B13B4A3032126831
:104FD0000243394B30331A6006E0374A30321268E8
:104FE0008243354B30331A60704739B1324A34321C
:104FF00012680243304B34331A6006E02E4A3432D2
:10500000126882432C4B34331A60704739B12A4AF4
:10501000403212680243284B40331A6006E0264AA9
:10502000403212688243244B40331A60704739B1D2
:10503000214A4432126802431F4B44331A6006E08F
:105040001D4A4432126882431B4B44331A60704736
:1050500039B1194A103212680243174B10331A60E3
:1050600006E0154A103212688243134B10331A605F
:10507000704739B1104A1432126802430E4B143390
:105080001A6006E00C4A1432126882430A4B143349
:105090001A60704739B1084A203212680243064B41
:1050A00020331A6006E0044A203212688243024B21
:1050B00020331A607047000000380240FFFFF6EA14
:1050C0001030002400004742800E47420024F400C4
:1050D00000127A0087010020FFFCFF0FE011474219
:1050E00029B13D4A126802433B4B1A6004E03A4A38
:1050F00012688243384B1A60704739B1364A2C32F5
:1051000012680243344B2C331A6006E0324A2C32C8
:1051100012688243304B2C331A60704739B12E4AE3
:105120003032126802432C4B30331A6006E02A4AB0
:10513000303212688243284B30331A60704739B1DD
:10514000254A3C3212680243234B3C331A6006E086
:10515000214A3C32126882431F4B3C331A6070472D
:1051600039B11D4A4032126802431B4B40331A606A
:1051700006E0194A403212688243174B40331A60E6
:105180007047704739B1144A173A12780243124BEC
:10519000173B1A7006E0104A173A127882430E4BFA
:1051A000173B1A7070470C485030006840F0807010
:1051B000094950310860704701460020064A183AF4
:1051C00012680A4201D0012000E000207047024925
:1051D00016390870704700002438024010B50446A4
:1051E000FE48844208D101210846FFF779FF0021DB
:1051F0000120FFF775FF9DE0B4F1804F08D1012138
:105200000846FFF747FF00210120FFF743FF91E029
:10521000F348844208D101210220FFF73BFF00211F
:105220000220FFF737FF85E0EE48844208D10121D4
:105230000420FFF72FFF00210420FFF72BFF79E068
:10524000E948844208D101210820FFF723FF00210B
:105250000820FFF71FFF6DE0E448844208D10121D8
:105260001020FFF717FF00211020FFF713FF61E068
:10527000DF48844208D101212020FFF70BFF0021E5
:105280002020FFF707FF55E0DA48844208D10121CA
:105290000220FFF725FF00210220FFF721FF49E050
:1052A000D548844209D101210804FFF719FF0021E4
:1052B0004FF48030FFF714FF3CE0D048844209D11E
:1052C00001214804FFF70CFF00214FF40030FFF7E5
:1052D00007FF2FE0CA48844209D101218804FFF763
:1052E000FFFE00214FF48020FFF7FAFE22E0C548C0
:1052F000844208D101214020FFF7CCFE002140204C
:10530000FFF7C8FE16E0C048844208D10121802082
:10531000FFF7C0FE00218020FFF7BCFE0AE0BB487B
:10532000844207D101218015FFF7B4FE0021A015AA
:10533000FFF7B0FE10BD00220288A84B98420ED0A5
:10534000AC4B98420BD0B0F1804F08D0A44B9842A0
:1053500005D0A44B984202D0A34B984204D14FF6FB
:105360008F731A404B881A43A04B984207D0A04B2A
:10537000984204D04FF6FF431A400B891A4302802B
:105380004B68C3620B880385944B984202D0994BBB
:10539000984201D18B7A03860123838270474FF0B4
:1053A000FF3141600021018001814180817270479D
:1053B0000185828270470A46002101884FF68F736B
:1053C000194011430180704741627047C1627047C4
:1053D0000146486A70470146088D704721B102882E
:1053E00042F00202028004E002884FF6FD731A4088
:1053F0000280704721B1028842F00402028004E07A
:1054000002884FF6FB731A400280704721B1028870
:1054100042F08002028004E002884FF67F731A4057
:105420000280704702884FF6F7731A4002800288A4
:105430000A430280704702884FF6FF431A400280F9
:1054400002880A430280704721B1028842F00102BB
:10545000028004E002884FF6FE731A400280704713
:1054600070B5002400220023058C4FF6FE763540EF
:105470000584028C8388048B4FF68F752C40B51EF3
:105480002C400D882C43751E2A408D892A434D8857
:105490002A43524DA84202D0564DA84213D14FF68E
:1054A000F7752A40CD892A434FF6FB752A408D882F
:1054B0002A434FF6FF652B404FF6FF552B400D8AD0
:1054C0002B434D8A2B43838004838D68456302847C
:1054D00070BD70B5002400220023058C4FF6EF76D6
:1054E00035400584028C8388048B48F6FF752C4078
:1054F0004FF6FF452C400D884FF6FF7606EA05254E
:105500002C434FF6DF752A408D8906EA05152A439C
:105510004D8806EA05152A43304DA84202D0354D84
:10552000A8421DD14FF67F752A40CD894FF6FF76F0
:1055300006EA05152A434FF6BF752A408D8806EA0C
:1055400005152A434FF6FF352B404FF2FF752B40D0
:105550000D8A06EA85052B434D8A06EA85052B430D
:10556000838004838D688563028470BD70B50024D8
:1055700000220023058C4FF6FF6635400584028C1F
:105580008388848B4FF68F752C404FF6FC752C402A
:105590000D882C434FF6FF552A408D894FF6FF7634
:1055A00006EA05252A434D8806EA05252A430B4DC0
:1055B000A84202D00F4DA84238D14FF2FF752A40C1
:1055C000CD894FF6FF7606EA05252A434FF6FF35CB
:1055D0002A408D8806EA05252A4319E0000001408B
:1055E0000004004000080040000C00400010004093
:1055F000001400400004014000400140004401400C
:105600000048014000180040001C004000200040FD
:105610004EF6FF752B404DF6FF752B400D8A06EABE
:1056200005152B434D8A06EA05152B438380848399
:105630008D68C563028470BD70B50022002300240C
:10564000058C4EF6FF7635400584038C8488828B6A
:1056500048F6FF752A404FF6FF452A400D884FF661
:10566000FF7606EA05252A434DF6FF752B408D8906
:1056700006EA05352B434D8806EA05352B43FE4DDA
:10568000A84202D0FD4DA84208D14BF6FF752C4030
:105690000D8A4FF6FF7606EA85152C4384808283B7
:1056A0008D680564038470BD002101804180818084
:1056B00081608181C18101824182704770B503465A
:1056C000002000241846183001258D40ACB21D8CF6
:1056D000A5431D8409B108290AD100EB61000568C2
:1056E0004FF68F76354005600568154305600FE07D
:1056F0000D1FC5F34E052844056848F6FF76354072
:10570000056005684FF6FF7606EA02263543056018
:1057100070BD4163704781637047C1637047016426
:1057200070470A460021018B4FF68F7319401143D1
:10573000018370470A460021018B48F6FF73194028
:105740004FF6FF7303EA02231943018370470A46A9
:105750000021818B4FF68F7319401143818370476D
:105760000A460021818B48F6FF7319404FF6FF73FC
:1057700003EA02231943818370470A460021018B03
:105780004FF6F77319401143018370470A46002111
:10579000018B4FF2FF7319404FF6FF7303EA0223A8
:1057A0001943018370470A460021818B4FF6F77336
:1057B00019401143818370470A460021818B4FF2C3
:1057C000FF7319404FF6FF7303EA022319438183E5
:1057D00070470A460021018B4FF6FB7319401143B5
:1057E000018370470A460021018B4FF6FF331940B1
:1057F0004FF6FF7303EA02231943018370470A46F9
:105800000021818B4FF6FB73194011438183704750
:105810000A460021818B4FF6FF3319404FF6FF7384
:1058200003EA02231943818370470A460021018B52
:105830004FF67F7319401143018370470A460021D8
:10584000018BC1F30E014FF6FF7303EA02231943E4
:10585000018370470A460021818B4FF67F73194000
:105860001143818370470A460021818BC1F30E01E9
:105870004FF6FF7303EA02231943818370470A46F8
:105880000021018C4FF6FD731940114301847047CC
:105890000A460021018C4FF6F77319401143018429
:1058A00070470A460021018C4FF6DF7319404FF60E
:1058B000FF7303EA02131943018470470A4600216B
:1058C000018C4FF67F7319404FF6FF7303EA021302
:1058D0001943018470470A460021018C4FF6FF539B
:1058E00019404FF6FF7303EA0223194301847047FE
:1058F0000A460021018C4FF2FF7319404FF6FF73E7
:1059000003EA02231943018470470A460021018CEF
:105910004DF6FF7319404FF6FF7303EA0233194344
:105920000184704730B5002301248C40A3B2048C5D
:105930009C430484048C02FA01F5ADB22C43048428
:1059400030BD30B5002304248C40A3B2048C9C43AA
:105950000484048C02FA01F5ADB22C43048430BDFA
:10596000828B4FF2FF331A408283828B4FF6FF7394
:1059700003EA01231A4382837047F0B50C461546AB
:10598000002100220026078C4EF6FF7C07EA0C0758
:105990000784818B028C4FF6FF7707EA043640F6C6
:1059A000FF4739404FF6FF7707EA052739434FF69F
:1059B000FF7707EA0337394345F6FF773A4046F465
:1059C00080573A4381830284F0BD828B4FF6F37394
:1059D0001A408283828B0A4382837047F0B50C465B
:1059E0001546002100220026078C4FF6FF6C07EABF
:1059F0000C070784818B028C4FF6FF7707EA042699
:105A00004FF60C7739404FF6FF7707EA03172F431D
:105A100039434FF2FF573A4046F480773A43818347
:105A20000284F0BD028B4FF2FF331A400283028BD7
:105A30004FF6FF7303EA01231A4302837047F0B560
:105A40000C461546002100220026078C4FF6EF7CFD
:105A500007EA0C070784018B028C4FF6FF7707EAF1
:105A6000041640F6FF4739404FF6FF7707EA033741
:105A700039434FF6FF7703E0000001400004014086
:105A800007EA052739434FF65F773A4046F010079B
:105A90003A4301830284F0BD028B4FF6F3731A4040
:105AA0000283028B0A4302837047F0B50C46154609
:105AB00000210022068C4FF6FE773E400684018BC3
:105AC000028C4FF60C7631407E1C06EA03162E43FC
:105AD00031434FF6F576324044F0010632430183FC
