:020000040800F2
:10000000E80B002069020008DD290008DF2900084C
:10001000E3290008E7290008EB2900080000000098
:10002000000000000000000000000000EF290008B0
:10003000F129000800000000F3290008F529000854
:10004000830200088302000883020008830200087C
:10005000830200088302000883020008830200086C
:10006000830200088302000883020008830200085C
:10007000830200088302000883020008830200084C
:10008000830200088302000883020008830200083C
:10009000830200088302000883020008830200082C
:1000A000830200088302000883020008830200081C
:1000B000830200088302000883020008830200080C
:1000C00083020008830200088302000883020008FC
:1000D000830200083F2A0008BB2A0008372B0008CB
:1000E00083020008830200088302000883020008DC
:1000F00083020008830200088302000883020008CC
:1001000083020008830200088302000883020008BB
:10011000332C0008832C00088302000883020008A7
:10012000830200088302000883020008830200089B
:10013000830200088302000883020008830200088B
:10014000830200088302000883020008830200087B
:10015000830200088302000883020008FF2C0008C5
:10016000830200088302000883020008830200085B
:10017000830200088302000883020008830200084B
:10018000830200088302000800F002F800F05CF827
:100190000AA090E8000C82448344AAF10107DA45E2
:1001A00001D100F051F8AFF2090EBAE80F0013F0D8
:1001B000010F18BFFB1A43F001031847A0660000A7
:1001C000C06600000A444FF0000C10F8013B13F029
:1001D000070408BF10F8014B1D1108BF10F8015BA0
:1001E000641E05D010F8016B641E01F8016BF9D193
:1001F00013F0080F1EBF10F8014BAD1C0C1B09D1EA
:100200006D1E58BF01F801CBFAD505E014F8016B5B
:1002100001F8016B6D1EF9D59142D6D370470000ED
:100220000023002400250026103A28BF78C1FBD8FF
:10023000520728BF30C148BF0B6070471FB506F09A
:1002400002FB1FBD10B510BD06F0CDF81146FFF73B
:10025000F5FF02F0CBFD06F0EBF803B4FFF7F2FF79
:1002600003BC06F0F3F8000009488047094800473E
:10027000FEE7FEE7FEE7FEE7FEE7FEE7FEE7FEE756
:10028000FEE7FEE704480549054A064B70470000B3
:100290008503000889010008E8050020E80B00201C
:1002A000E8070020E80700200CB50020019000902E
:1002B0007648006840F480307449086000BF734895
:1002C000006800F4003000900198401C01900098F4
:1002D00018B90198B0F5A04FF1D16C48006800F44E
:1002E000003010B10120009001E000200090009843
:1002F000012846D165484030006840F0805063498D
:10030000403108606248006840F44040604908603D
:100310005E48083000685D4908310860084600689A
:1003200040F4004008600846006840F4A0500860AF
:100330005848091F0860081F006840F08070091FB6
:10034000086000BF5148006800F000700028F9D034
:1003500040F20570504908604C480830006820F0B1
:1003600003004A49083108600846006840F002006E
:10037000086000BF45480830006800F00C000828FD
:10038000F8D10CBD10B54548006840F470004349F1
:1003900008603E48006840F001003C4908600020C9
:1003A0003A4908310860394800683D4908403749F2
:1003B00008603C48091D0860081F006820F4802080
:1003C000091F0860002031490C310860FFF76CFFFD
:1003D0004FF0006031498039086010BD70B50020D1
:1003E0000022022300240221284D08352D6805F043
:1003F0000C0020B1042806D0082834D107E02A4D8B
:100400002A4E356033E02A4D284E35602FE01F4DCF
:100410002D1D2D68C5F380541C4D2D1D2D6805F034
:100420003F0154B1224DB5FBF1F5184E361D36682B
:10043000C6F3881605FB06F209E01B4DB5FBF1F586
:10044000124E361D3668C6F3881605FB06F20F4DB0
:100450002D1D2D68C5F301456D1C6B00B2FBF3F536
:10046000124E356003E0104D104E356000BF00BFE6
:10047000064D08352D68C5F303150E4E705D0B4D06
:100480002D68C540094E356070BD0000003802403F
:1004900000700040042A4007003C024088ED00E064
:1004A000FFFFF6FE103000240024F40000000020BE
:1004B00000127A000400002010B500F015F802F0D8
:1004C00019F802F0FBF94FF47A7000F05BF800F0D5
:1004D00097F80A2001F07CFF02F0CCF801F0AAFEA8
:1004E00000F08CFA10BD00001CB50121022004F0C0
:1004F000F1FD4FF48050009001208DF804000020A1
:100500008DF8060002208DF8050069461B4804F0AE
:10051000A3FB0121082004F0DDFD4FF40050009002
:1005200001208DF8040000208DF8060002208DF8CF
:1005300005006946124804F08FFB4FF480510F48C4
:1005400004F008FC4FF400510D4804F003FC1CBDFE
:1005500010B54FF48051094804F005FC10BD10B5EA
:100560004FF48051054804F0FEFB4FF4005104485D
:1005700004F0F9FBC82002F059FC10BD0004024051
:10058000000C024070B50346184803601848006824
:10059000184AB0FBF2F0154A126800FB02F1481E3F
:1005A000B0F1807F01D301201BE0481E4FF0E02214
:1005B000506150170F22002807DA1407260E0E4C40
:1005C00000F00F052D1F665503E01407250E0B4C98
:1005D000255400BF00204FF0E022906107201061F9
:1005E000002008B100BFFEE770BD0000140000202D
:1005F0000000002040420F0018ED00E000E400E0A1
:1006000000B587B00121084604F064FD07220921E6
:10061000F04804F0ACFB07220A21EE4804F0A7FBE7
:100620004FF4C060059000208DF819008DF81A0075
:1006300002208DF8180005A9E64804F00DFB012101
:10064000102004F07AFD4FF4165001900020ADF810
:100650000800ADF80A00ADF80C00ADF810000C2051
:10066000ADF80E0001A9DC4805F0F7FC0121DA48DD
:1006700005F07BFD8021D84805F05FFE012240F2A5
:100680002551D54805F027FE0121082004F022FD60
:1006900007220521D14804F06AFB07220621CF4832
:1006A00004F065FB6020059000208DF819008DF89E
:1006B0001A0002208DF8180005A9C84804F0CCFAE9
:1006C0000121480404F028FD4FF416500190002049
:1006D000ADF80800ADF80A00ADF80C00ADF8100058
:1006E0000C20ADF80E0001A9BD4805F0B6FC0121B3
:1006F000BB4805F03AFD8021B94805F01EFE0122F5
:1007000040F22551B64805F0E6FD0121082004F02D
:10071000E1FC07220821B14804F029FB0722092146
:10072000AE4804F024FB4FF44070059000208DF893
:1007300019008DF81A0002208DF8180005A9A748A5
:1007400004F08AFA0121880404F0E6FC4FF4E13059
:1007500001900020ADF80800ADF80A00ADF80C00DB
:10076000ADF810000C20ADF80E0001A99D4805F071
:1007700074FC01219B4805F0F8FC8021994805F0A4
:10078000DCFD012240F22551964805F0A4FD01212F
:10079000042004F09FFC08220A21934804F0E7FAA1
:1007A00008220B21904804F0E2FA4FF440600590D3
:1007B00000208DF819008DF81A0002208DF818001D
:1007C00005A9894804F048FA0121C80404F0A4FCF2
:1007D0004FF4E13001900020ADF80800ADF80A00B8
:1007E000ADF80C00ADF810000C20ADF80E0001A91A
:1007F0007E4805F032FC012240F225517B4805F08D
:100800006AFD8021794805F098FD0121774805F0BF
:10081000ACFC01210C2004F05DFC08220C21724884
:1008200004F0A5FA082202216C4804F0A0FA4FF463
:100830008050059000208DF819008DF81A000220D4
:100840008DF8180005A9684804F006FA0420059000
:1008500000208DF819008DF81A0002208DF818007C
:1008600005A95E4804F0F8F90121080504F054FCDC
:100870004FF4165001900020ADF80800ADF80A00C2
:10088000ADF80C00ADF810000C20ADF80E0001A979
:10089000574805F0E2FB8021554805F04EFD012246
:1008A00040F22551524805F016FD0121504805F04F
:1008B0005CFC0121402004F00DFC08220E214D4873
:1008C00004F055FA082209214A4804F050FA4FF47E
:1008D0008440059001208DF8190000208DF81A0041
:1008E00002208DF8180005A9424804F0B5F901214D
:1008F000202004F022FC4FF4E13001900020ADF8FC
:100900000800ADF80A00ADF80C00ADF810000C209E
:10091000ADF80E0001A9384805F09FFB802136484C
:1009200005F00BFD0121344805F01FFC012240F2C7
:100930002551314805F0CFFC07B000BD70B5054624
:1009400000240CE0285D2949091D088000BF802192
:10095000264805F0E5FC0028F9D0601CC4B2062C3E
:10096000F0DB70BD70B505460E4600240BE0285D37
:100970001949888000BF8021174805F0D1FC002864
:10098000F9D0601CC4B2B442F1DB70BD10B50446AE
:100990001948001D048000BF8021174805F0C0FCE5
:1009A0000028F9D010BD2DE9F04105460E46174646
:1009B00000240AE0305DA88000BF8021284605F0B1
:1009C000AFFC0028F9D0601CC4B2BC42F2DBBDE829
:1009D000F08100000000024000100140000C0240C5
:1009E000004400400048004000080240004C004025
:1009F00000500040001802400014014008B54FF4B8
:100A0000A06004F049F84FF4A06004F045F82520F8
:100A10008DF8000002208DF801008DF80200012001
:100A20008DF80300684604F03CF84FF4E06004F0F1
:100A300033F826208DF8000000208DF801008DF895
:100A4000020001208DF80300684604F02AF84FF4F4
:100A5000C06004F021F827208DF8000001208DF8F7
:100A600001008DF802008DF80300684604F019F8C3
:100A70004FF4806004F010F834208DF8000003205B
:100A80008DF801008DF8020001208DF80300684602
:100A900004F007F84FF4407003F0FEFF35208DF8A6
:100AA000000000208DF801008DF8020001208DF873
:100AB0000300684603F0F5FF4FF4407003F0ECFFCD
:100AC00047208DF8000001208DF801008DF802000C
:100AD0008DF80300684603F0E4FF08BD2DE9F041FE
:100AE00006460C46002751203D494870002C03DB88
:100AF0001C2C01DC0C7101E0BDE8F08138488670E7
:100B0000002504E03648405D4740681CC5B2052D0D
:100B1000F8DB334847710721FFF724FF00BFEBE7FD
:100B200070B5002553202F494870002404E02D485B
:100B3000005D4540601CC4B2052CF8DB29484571B6
:100B40000721FFF70FFF70BD2DE9F84F804689465A
:100B500015461C46DDF828A0FF200090C8209AFB0F
:100B6000F0F01FFA80FB002733E00026642C00DA47
:100B70006424204602F05AF949464046FFF7AEFF8A
:100B80000F2002F053F90020174908700CE0C8202C
:100B900002F04CF9002015490870FFF7C1FF701CE6
:100BA00086B25E4500DD07E011480078022803D0D8
:100BB0000D4800780028EAD000BF0D4800780228D0
:100BC00002D10120009002E00020009004E0781C97
:100BD00087B2AF42C9DB00BF0098BDE8F88F0000C4
:100BE000180000201F0000202F0000202E000020F1
:100BF0002D00002010B5AA20FFF7C8FE10BD10B5CB
:100C0000CC20FFF7C3FE3320FFF7C0FEC320FFF761
:100C1000BDFE3C20FFF7BAFE10BD10B50446FFF73D
:100C2000E9FF7020FFF7B2FE2046FFF7AFFEFFF7A7
:100C3000E6FF10BD2DE9F04104460D4616461F465D
:100C4000FFF7D8FF5920FFF7A1FEA046E11704EBFC
:100C50001161C1F30720FFF799FEE11704EB116161
:100C60000912A4EB0121C8B2FFF790FEA846E917CC
:100C700005EB1161C1F30720FFF788FEE91705EBCB
:100C800011610912A5EB0121C8B2FFF77FFEB04642
:100C9000F11706EB1161C1F30720FFF777FEF1179B
:100CA00006EB11610912A6EB0121C8B2FFF76EFE37
:100CB000B846F91707EB1161C1F30720FFF766FE8D
:100CC000F91707EB11610912A7EB0121C8B2FFF771
:100CD0005DFEFFF794FFBDE8F0812DE9F041044689
:100CE0000D4616461F46FFF785FF5B20FFF74EFEB9
:100CF000A046E11704EB1161C1F30720FFF746FEA0
:100D0000E11704EB11610912A4EB0121C8B2FFF74E
:100D10003DFEA846E91705EB1161C1F30720FFF777
:100D200035FEE91705EB11610912A5EB0121C8B2E7
:100D3000FFF72CFEB046F11706EB1161C1F3072057
:100D4000FFF724FEF11706EB11610912A6EB012152
:100D5000C8B2FFF71BFEB846F91707EB1161C1F3E4
:100D60000720FFF713FEF91707EB11610912A7EB34
:100D70000121C8B2FFF70AFEFFF741FFBDE8F0818D
:100D800010B5FFF737FF5220FFF700FEFFF737FFE0
:100D900010BD70B504460D46FFF72CFF4020FFF74D
:100DA000F5FD2646E11704EB1161C1F30720FFF7BB
:100DB000EDFDE11704EB11610912A4EB0121C8B2AA
:100DC000FFF7E4FD2E46E91705EB1161C1F307209B
:100DD000FFF7DCFDE91705EB11610912A5EB012115
:100DE000C8B2FFF7D3FDFFF70AFF70BD70B5044628
:100DF0000D46FFF7FFFE4220FFF7C8FD2646E1172C
:100E000004EB1161C1F30720FFF7C0FDE11704EB0C
:100E100011610912A4EB0121C8B2FFF7B7FD2E46FC
:100E2000E91705EB1161C1F30720FFF7AFFDE917E3
:100E300005EB11610912A5EB0121C8B2FFF7A6FD70
:100E4000FFF7DDFE70BD10B50446FFF7D3FE792035
:100E5000FFF79CFD2046FFF799FDFFF7D0FE10BD80
:100E600010B50446FFF7C6FE5F20FFF78FFD204652
:100E7000FFF78CFDFFF7C3FE10BD2DE9F04781465B
:100E8000884614461D46089EFFF7B4FE9B20FFF7D8
:100E90007DFDFF20FFF77AFD4846FFF777FD4046CE
:100EA000FFF774FD2746E11704EB1161C1F307203A
:100EB000FFF76CFDE11704EB11610912A4EB0121AE
:100EC000C8B2FFF763FD2F46E91705EB1161C1F3C7
:100ED0000720FFF75BFDE91705EB11610912A5EB90
:100EE0000121C8B2FFF752FD3746F11706EB116139
:100EF000C1F30720FFF74AFDF11706EB1161091254
:100F0000A6EB0121C8B2FFF741FDFFF778FEBDE86F
:100F1000F0872DE9F04704460D4616461F46DDE9E9
:100F20000889FFF767FEE720FFF730FD5520FFF740
:100F30002DFDAA20FFF72AFD5A20FFF727FDA52047
:100F4000FFF724FD0A2094FBF0F100FB114194FB14
:100F5000F0F001EB001000F0FF0A5046FFF716FD1D
:100F60000A2095FBF0F100FB115195FBF0F001EB2D
:100F7000001000F0FF0A5046FFF708FD0A2096FB1C
:100F8000F0F100FB116196FBF0F001EB001000F0B6
:100F9000FF0A5046FFF7FAFC0A2097FBF0F100FB2E
:100FA000117197FBF0F001EB001000F0FF0A5046C2
:100FB000FFF7ECFC0A2098FBF0F100FB118198FB95
:100FC000F0F001EB001000F0FF0A5046FFF7DEFCE6
:100FD0000A2099FBF0F100FB119199FBF0F001EB75
:100FE000001000F0FF0A5046FFF7D0FCFFF707FEA5
:100FF000BDE8F08770B505460E461446FFF7FAFDCA
:101000005520FFF7C3FC2812FFF7C0FCE8B2FFF73A
:10101000BDFC3012FFF7BAFCF0B2FFF7B7FC03E0FB
:1010200014F8010BFFF7B2FC20780028F8D1FFF785
:10103000E6FD70BDF8B505460E461446FEA00068F4
:1010400000900A2094FBF0F100FB11403030C0B258
:101050008DF8000000208DF801006A4631462846D0
:10106000FFF7C8FFF8BDF8B505460E461446F3A0D5
:10107000006800900A2094FBF0F03030C0B28DF888
:1010800000000A2094FBF0F100FB11403030C0B2A8
:101090008DF8010000208DF802006A46314628468E
:1010A000FFF7A8FFF8BDF8B505460E461446E4A0C4
:1010B00000680090642094FBF0F03030C0B28DF8EE
:1010C00000000A2094FBF0F00A2190FBF1F201FBF2
:1010D00012003030C0B28DF801000A2094FBF0F10C
:1010E00000FB11403030C0B28DF8020000208DF8B6
:1010F00003006A4631462846FFF77CFFF8BD2DE91C
:10110000F04104460D4616461F46FFF773FD5A2070
:10111000FFF73CFCA046E11704EB1161C1F3072087
:10112000FFF734FCE11704EB11610912A4EB012174
:10113000C8B2FFF72BFCA846E91705EB1161C1F314
:101140000720FFF723FCE91705EB11610912A5EB56
:101150000121C8B2FFF71AFCB046F11706EB116186
:10116000C1F30720FFF712FCF11706EB116109121A
:10117000A6EB0121C8B2FFF709FCB846F91707EB47
:101180001161C1F30720FFF701FCF91707EB1161AB
:101190000912A7EB0121C8B2FFF7F8FBFFF72FFDFB
:1011A000BDE8F08110B5AA20FFF7F0FB4320FFF760
:1011B000EDFB0020FFF7EAFB7920FFF7E7FB0020BB
:1011C000FFF7E4FB0D20FFF7E1FBCC20FFF7DEFB90
:1011D0003320FFF7DBFBC320FFF7D8FB3C20FFF7F2
:1011E000D5FB10BD70B50446B4F57A7F00DB002452
:1011F000AA20FFF7CBFB5B20FFF7C8FB0020FFF71F
:10120000C5FB7220FFF7C2FB0020FFF7BFFB0920E0
:10121000FFF7BCFB0020FFF7B9FBBA20FFF7B6FBD6
:101220000020FFF7B3FB2B20FFF7B0FBCC20FFF72C
:10123000ADFB3320FFF7AAFBC320FFF7A7FB3C2041
:10124000FFF7A4FBAA20FFF7A1FB9820FFF79EFB66
:101250000020FFF79BFB7A20FFF798FB0020FFF7A9
:1012600095FB0A20FFF792FB2320FFF78FFB8120DD
:10127000FFF78CFB0320FFF789FBFF20FFF786FBBE
:10128000FF20FFF783FB0020FFF780FB1F20FFF705
:101290007DFB642094FBF0F03030C5B22846FFF7A8
:1012A00075FB642094FBF0F100FB114084B20A202E
:1012B00094FBF0F03030C5B22846FFF767FB0A20F8
:1012C00094FBF0F100FB11403030C5B22846FFF727
:1012D0005DFBCC20FFF75AFB3320FFF757FBC32001
:1012E000FFF754FB3C20FFF751FB70BD10B5AA205F
:1012F000FFF74CFB5B20FFF749FB0120FFF746FBA4
:101300003420FFF743FB0020FFF740FB0920FFF7E5
:101310003DFB0120FFF73AFB8020FFF737FB002061
:10132000FFF734FB2B20FFF731FBCC20FFF72EFB20
:101330003320FFF72BFBC320FFF728FB3C20FFF7F0
:1013400025FBAA20FFF722FB9820FFF71FFB0120B7
:10135000FFF71CFB3620FFF719FB0020FFF716FBF9
:101360000A20FFF713FB2320FFF710FB8120FFF774
:101370000DFB0320FFF70AFBFF20FFF707FBFF2011
:10138000FFF704FB0020FFF701FB1F20FFF7FEFA29
:10139000B920FFF7FBFAA420FFF7F8FAD720FFF7F0
:1013A000F5FAF720FFF7F2FACC20FFF7EFFA332037
:1013B000FFF7ECFAC320FFF7E9FA3C20FFF7E6FA63
:1013C00010BD10B5AA20FFF7E1FA5B20FFF7DEFAA7
:1013D0000120FFF7DBFA3420FFF7D8FA0020FFF7EF
:1013E000D5FA0920FFF7D2FA0120FFF7CFFA8020C3
:1013F000FFF7CCFA0020FFF7C9FA2B20FFF7C6FA57
:10140000CC20FFF7C3FA3320FFF7C0FAC320FFF761
:10141000BDFA3C20FFF7BAFAAA20FFF7B7FA9820E6
:10142000FFF7B4FA0120FFF7B1FA3620FFF7AEFA62
:101430000020FFF7ABFA05E030000000303000007C
:10144000303030000A20FFF7A1FA2320FFF79EFA80
:101450008120FFF79BFA0320FFF798FAFF20FFF7A0
:1014600095FAFF20FFF792FA0020FFF78FFA1F206E
:10147000FFF78CFABF20FFF789FAD520FFF786FA2D
:10148000CF20FFF783FAD020FFF780FACC20FFF7B8
:101490007DFA3320FFF77AFAC320FFF777FA3C2072
:1014A000FFF774FA10BD10B5AA20FFF76FFA5B20A2
:1014B000FFF76CFA0120FFF769FAE620FFF766FAFA
:1014C0000020FFF763FA0920FFF760FA0220FFF718
:1014D0005DFA4620FFF75AFA0020FFF757FA2B2053
:1014E000FFF754FACC20FFF751FA3320FFF74EFAFA
:1014F000C320FFF74BFA3C20FFF748FAAA20FFF77A
:1015000045FA9820FFF742FA0120FFF73FFAEA2058
:10151000FFF73CFA0020FFF739FA0A20FFF736FA06
:101520002320FFF733FA8120FFF730FA0320FFF77B
:101530002DFAFF20FFF72AFAFF20FFF727FA0020F5
:10154000FFF724FA1F20FFF721FAD520FFF71EFA34
:10155000FD20FFF71BFAB320FFF718FAA320FFF7CF
:1015600015FACC20FFF712FA3320FFF70FFAC32049
:10157000FFF70CFA3C20FFF709FA10BD10B5AA20BE
:10158000FFF704FA5B20FFF701FA0120FFF7FEF9ED
:10159000E620FFF7FBF90020FFF7F8F90920FFF735
:1015A000F5F90220FFF7F2F94620FFF7EFF90020E6
:1015B000FFF7ECF92B20FFF7E9F9CC20FFF7E6F96C
:1015C0003320FFF7E3F9C320FFF7E0F93C20FFF7F2
:1015D000DDF9AA20FFF7DAF99820FFF7D7F9012003
:1015E000FFF7D4F9EA20FFF7D1F90020FFF7CEF991
:1015F0000A20FFF7CBF92320FFF7C8F98120FFF776
:10160000C5F90320FFF7C2F9FF20FFF7BFF9FF205C
:10161000FFF7BCF90020FFF7B9F91F20FFF7B6F973
:10162000B120FFF7B3F9A820FFF7B0F9BE20FFF70C
:10163000ADF9AF20FFF7AAF9CC20FFF7A7F93320C7
:10164000FFF7A4F9C320FFF7A1F93C20FFF79EF9AB
:1016500010BD10B5AA20FFF799F95B20FFF796F9A6
:101660000220FFF793F9AD20FFF790F90020FFF774
:101670008DF90920FFF78AF90320FFF787F9082081
:10168000FFF784F90020FFF781F92B20FFF77EF99F
:10169000CC20FFF77BF93320FFF778F9C320FFF761
:1016A00075F93C20FFF772F9AA20FFF76FF998202F
:1016B000FFF76CF90220FFF769F9B020FFF766F930
:1016C0000020FFF763F90A20FFF760F92320FFF7F6
:1016D0005DF98120FFF75AF90320FFF757F9FF2042
:1016E000FFF754F9FF20FFF751F90020FFF74EF9FB
:1016F0001F20FFF74BF9D520FFF748F9FD20FFF732
:1017000045F9B320FFF742F9A320FFF73FF9CC20BA
:10171000FFF73CF93320FFF739F9C320FFF736F91B
:101720003C20FFF733F910BD10B5AA20FFF72EF9C2
:101730005B20FFF72BF90220FFF728F9AD20FFF718
:1017400025F90020FFF722F90920FFF71FF90320F0
:10175000FFF71CF90820FFF719F90020FFF716F929
:101760002B20FFF713F9CC20FFF710F93320FFF7F8
:101770000DF9C320FFF70AF93C20FFF707F9AA206B
:10178000FFF704F99820FFF701F90220FFF7FEF8B0
:10179000B020FFF7FBF80020FFF7F8F80A20FFF76A
:1017A000F5F82320FFF7F2F88120FFF7EFF8032088
:1017B000FFF7ECF8FF20FFF7E9F8FF20FFF7E6F866
:1017C0000020FFF7E3F81F20FFF7E0F8B120FFF754
:1017D000DDF8A820FFF7DAF8BE20FFF7D7F8AF2032
:1017E000FFF7D4F8CC20FFF7D1F83320FFF7CEF87D
:1017F000C320FFF7CBF83C20FFF7C8F810BD10B5A9
:10180000AA20FFF7C3F85B20FFF7C0F80020FFF71E
:10181000BDF87220FFF7BAF80020FFF7B7F83A20BA
:10182000FFF7B4F80020FFF7B1F8BE20FFF7AEF8DD
:101830000020FFF7ABF85D20FFF7A8F8CC20FFF7FA
:10184000A5F83320FFF7A2F8C320FFF79FF83C204C
:10185000FFF79CF8AA20FFF799F89820FFF796F871
:101860000020FFF793F87A20FFF790F80020FFF7A9
:101870008DF83A20FFF78AF82320FFF787F88120B8
:10188000FFF784F80320FFF781F8FF20FFF77EF8C9
:10189000FF20FFF77BF80020FFF778F81F20FFF705
:1018A00075F8D520FFF772F8FD20FFF76FF8B32029
:1018B000FFF76CF8A320FFF769F8CC20FFF766F874
:1018C0003320FFF763F8C320FFF760F83C20FFF7F1
:1018D0005DF810BD10B5AA20FFF758F85B20FFF7A0
:1018E00055F80020FFF752F87220FFF74FF800205C
:1018F000FFF74CF83A20FFF749F80020FFF746F8C9
:10190000BE20FFF743F80020FFF740F85D20FFF707
:101910003DF8CC20FFF73AF83320FFF737F8C32023
:10192000FFF734F83C20FFF731F8AA20FFF72EF834
:101930009820FFF72BF80020FFF728F87A20FFF710
:1019400025F80020FFF722F83A20FFF71FF82320A0
:10195000FFF71CF88120FFF719F80320FFF716F8AE
:10196000FF20FFF713F8FF20FFF710F80020FFF724
:101970000DF81F20FFF70AF8CA20FFF707F8A72085
:10198000FFF704F8B020FFF701F8DC20FEF7FEFFB8
:10199000CC20FEF7FBFF3320FEF7F8FFC320FEF755
:1019A000F5FF3C20FEF7F2FF10BD10B5AA20FEF7B0
:1019B000EDFF5B20FEF7EAFF0120FEF7E7FF2020A6
:1019C000FEF7E4FF0020FEF7E1FF3A20FEF7DEFF1E
:1019D0000120FEF7DBFF8020FEF7D8FF0020FEF796
:1019E000D5FF5D20FEF7D2FFCC20FEF7CFFF3320DE
:1019F000FEF7CCFFC320FEF7C9FF3C20FEF7C6FF71
:101A0000AA20FEF7C3FF9820FEF7C0FF0120FEF7D3
:101A1000BDFF2820FEF7BAFF0020FEF7B7FF3A20EF
:101A2000FEF7B4FF2320FEF7B1FF8120FEF7AEFFE3
:101A30000320FEF7ABFFFF20FEF7A8FFFF20FEF715
:101A4000A5FF0020FEF7A2FF1F20FEF79FFFD52075
:101A5000FEF79CFFFD20FEF799FFB320FEF796FFEF
:101A6000A320FEF793FFCC20FEF790FF3320FEF774
:101A70008DFFC320FEF78AFF3C20FEF787FF10BDD5
:101A800010B5AA20FEF782FF5B20FEF77FFF012042
:101A9000FEF77CFF2020FEF779FF0020FEF776FF9F
:101AA0003A20FEF773FF0120FEF770FF8020FEF75B
:101AB0006DFF0020FEF76AFF5D20FEF767FFCC2078
:101AC000FEF764FF3320FEF761FFC320FEF75EFFE1
:101AD0003C20FEF75BFFAA20FEF758FF9820FEF798
:101AE00055FF0120FEF752FF2820FEF74FFF002090
:101AF000FEF74CFF3A20FEF749FF2320FEF746FF92
:101B00008120FEF743FF0320FEF740FFFF20FEF792
:101B10003DFFFF20FEF73AFF0020FEF737FF1F20B2
:101B2000FEF734FFCD20FEF731FFD120FEF72EFF68
:101B3000B920FEF72BFFEC20FEF728FFCC20FEF7A4
:101B400025FF3320FEF722FFC320FEF71FFF3C20B6
:101B5000FEF71CFF10BD10B5AA20FEF717FF71207D
:101B6000FEF714FF0020FEF711FF0320FEF70EFF23
:101B70000020FEF70BFF5920FEF708FF0120FEF7BB
:101B800005FF8120FEF702FF0020FEF7FFFEB220D6
:101B9000FEF7FCFE0120FEF7F9FEB720FEF7F6FE89
:101BA0000220FEF7F3FEB320FEF7F0FE0020FEF762
:101BB000EDFE6D20FEF7EAFECC20FEF7E7FE3320B7
:101BC000FEF7E4FEC320FEF7E1FE3C20FEF7DEFE5A
:101BD00010BD10B5AA20FEF7D9FE7120FEF7D6FE83
:101BE0000020FEF7D3FE0320FEF7D0FE0020FEF714
:101BF000CDFEB220FEF7CAFE0020FEF7C7FE002091
:101C0000FEF7C4FE0120FEF7C1FE0A20FEF7BEFE6D
:101C10000020FEF7BBFE3620FEF7B8FE0220FEF7DE
:101C2000B5FEB320FEF7B2FE0020FEF7AFFE6D203A
:101C3000FEF7ACFECC20FEF7A9FE3320FEF7A6FE91
:101C4000C320FEF7A3FE3C20FEF7A0FE10BD10B59A
:101C5000AA20FEF79BFE7120FEF798FE0020FEF7FB
:101C600095FE0320FEF792FE0020FEF78FFE59201E
:101C7000FEF78CFE0020FEF789FE3720FEF786FE79
:101C80000020FEF783FEB220FEF780FE0020FEF764
:101C90007DFE6D20FEF77AFE0220FEF777FEB32070
:101CA000FEF774FE0020FEF771FEB420FEF76EFE14
:101CB000CC20FEF76BFE3320FEF768FEC320FEF754
:101CC00065FE3C20FEF762FE10BD10B5AA20FEF7AF
:101CD0005DFE7120FEF75AFE0020FEF757FE03203E
:101CE000FEF754FE0020FEF751FE5920FEF74EFE8F
:101CF0000020FEF74BFE0020FEF748FE0020FEF716
:101D000045FEB220FEF742FE0020FEF73FFE3620E1
:101D1000FEF73CFE0220FEF739FEB320FEF736FE4A
:101D20000020FEF733FEB420FEF730FECC20FEF795
:101D30002DFE3320FEF72AFEC320FEF727FE3C20AF
:101D4000FEF724FE10BD704770B50446B4F57A7FE7
:101D500000DB0024002C7CDDAA20FEF717FE5B20B0
:101D6000FEF714FE0120FEF711FEE220FEF70EFE44
:101D70000020FEF70BFE3A20FEF708FE0220FEF7D9
:101D800005FE4620FEF702FE0020FEF7FFFD5D2067
:101D9000FEF7FCFDCC20FEF7F9FD3320FEF7F6FD43
:101DA000C320FEF7F3FD3C20FEF7F0FDAA20FEF76E
:101DB000EDFD9820FEF7EAFD0120FEF7E7FDEA20A1
:101DC000FEF7E4FD0020FEF7E1FD3F20FEF7DEFD1B
:101DD0002320FEF7DBFD8120FEF7D8FD0320FEF770
:101DE000D5FDFF20FEF7D2FDFF20FEF7CFFD00203E
:101DF000FEF7CCFD1F20FEF7C9FD642094FBF0F038
:101E00003030C5B22846FEF7C1FD642094FBF0F1E6
:101E100000FB114084B20A2094FBF0F03030C5B2D0
:101E20002846FEF7B3FD0A2094FBF0F100FB1140B9
:101E30003030C5B22846FEF7A9FDCC20FEF7A6FD3E
:101E40003320FEF7A3FDC320FEF7A0FD3C20FEF7E4
:101E50009DFD70BD10B50446AA20FEF797FD7020C9
:101E6000FEF794FD0120FEF791FD0020FEF78EFDA8
:101E7000611CC8B2FEF78AFD0020FEF787FD5020E6
:101E8000FEF784FD0020FEF781FDE220FEF77EFDD7
:101E9000CC20FEF77BFD3320FEF778FDC320FEF754
:101EA00075FD3C20FEF772FD10BD10B5AA20FEF7AF
:101EB0006DFD9A20FEF76AFD0020FEF767FDCC203D
:101EC000FEF764FD3320FEF761FDC320FEF75EFDE3
:101ED0003C20FEF75BFD10BD10B5AA20FEF756FDB5
:101EE0009A20FEF753FDFF20FEF750FDCC20FEF7B1
:101EF0004DFD3320FEF74AFDC320FEF747FD3C2091
:101F0000FEF744FD10BD10B5FFF74CF90120FFF7B7
:101F100069F9FFF7EBF9FFF754FAFFF7C4FAFFF797
:101F20002DFBFFF796FBFFF7FFFBFFF768FCFFF7C2
:101F3000D1FCFFF73AFDFFF7A3FD0120FFF704FFF7
:101F400010BD10B50446102C34D1FA480078002892
:101F500020DDF8480078401EF6490870F6A25021AE
:101F600040F21620FFF746F8F44800880A2811DBF3
:101F7000F248008864280EDAF04800880A2190FBB5
:101F8000F1F0EE49088008460278502140F2162010
:101F9000FFF750F871E0E94800880A2190FBF1F062
:101FA000E649088008460278502140F21620FFF7E3
:101FB0005AF862E0112C1FD1DE48007800285CDD61
:101FC0000020DC490870DCA2502140F21620FFF707
:101FD00011F8DA480088DA4908800846028850215A
:101FE0004FF42F70FFF75FF8D5480088D549086097
:101FF0000120D549087040E00A2C3EDACD4800782F
:1020000003283ADACB480078401CCA490870CAA2B3
:10201000502140F21620FEF7EDFFC6480078012857
:1020200008D1C64804800278502140F21620FFF7FC
:1020300001F822E0BF48007802280FD1BF4800888D
:1020400000EB800004EB4000BC49088008460278A1
:10205000502140F21620FFF706F80EE0B74800883E
:1020600000EB800004EB4000B44908800846028879
:10207000502140F21620FFF716F810BD10B5B348F6
:10208000007800282BD00020B0490870B048407874
:10209000782824D1AE48C0793C28FAD1AC48C07821
:1020A00012281DD1AB4800780028F2D1AA48007848
:1020B0000028EED1A94800780128EAD14021A8489B
:1020C00002F02CFE20B18021A54802F027FE08B9BD
:1020D000012000E000200128DBD19E490870A8E023
:1020E0009B48C078132803D100209A490870A0E0CB
:1020F0009748C07820280DD19AA280213020FEF781
:1021000079FF2320994908709FED990A994880ED3D
:10211000000A8EE08E48C07821280DD196A2802139
:102120003020FEF767FF2D20904908709FED900A40
:10213000904880ED000A7CE08548C07822280DD1C7
:102140008FA280213020FEF755FF37208749087085
:102150009FED870A874880ED000A6AE07C48C078D6
:10216000232857D17D480078401C7C4908700846D8
:102170000078032801DD002008707848007830B12D
:1021800001280FD0022818D003282CD120E07EA2ED
:102190004FF4D0714FF49A70FEF72CFF00207C4969
:1021A000087021E07BA24FF4D0714FF49A70FEF7D3
:1021B00021FF00207649087016E078A24FF4D07114
:1021C0004FF49A70FEF716FF0120714908700BE07A
:1021D00074A24FF4D0714FF49A70FEF70BFF0020F9
:1021E0006B49087000E000BF00BF5C48007802F057
:1021F000CBFA09226D496E48FEF7D5FB57480078A7
:1022000018B156480078032813D100210846FEF77C
:1022100065FC0EE04E48C078242806D14FF4D071FA
:102220004FF4CA70FEF7E2FD03E04949C878FFF7B2
:1022300088FE10BD08B54FF47A7000F0F7FD1F213D
:102240004FF6FF70FEF7A5FD3220FEF709FE0021D4
:102250000846FEF7CBFD57A200214FF4AA70FEF707
:10226000C9FE55A200212820FEF7C4FE1F21084602
:10227000FEF78FFD002040F28A234FF6FF72042103
:102280000090FEF7FAFD1F210020FEF782FD1C23BF
:1022900040F27122042140F23F20FEF7CBFC1823CC
:1022A00040F26D22082140F24320FEF7C3FC1723C1
:1022B0004FF41E720921D01FFEF7BCFC1F214FF600
:1022C000FF70FEF766FD1A2340F26F22062140F2EE
:1022D0004120FEF7AFFC17234FF41B7209214FF486
:1022E0001170FEF7FAFC152340F276220B21D01E66
:1022F000FEF7F3FC1248028850214FF42F70FEF7CE
:10230000D2FE21A24FF4D0714FF49A70FEF772FE04
:102310004FF4D0714FF4CA70FEF768FD2AA24FF453
:10232000D0714FF4CA70FEF765FE00210846FEF733
:102330005DFD08BD4A000020202020004C00002048
:102340003E0000204400002048000020390000200A
:102350001C0200203B000020400000203100002033
:1023600000140240B5CDCBD90000000030000020A1
:1023700000000000B8000020D6D0CBD9000000003B
:10238000B8DFCBD900000000D3ADB1F600000000EB
:1023900010010020CBCDB2CD00000000CCF8CEE87B
:1023A00000000000B6D4BBB0000000006C050020A7
:1023B0000050004030303100D6A3D6DDBBDBCCDA94
:1023C000BBFAC6F7C8CB0000D7C0BAC500000000F2
:1023D00010B58AB004460121022002F07BFE0122E2
:1023E0000A21424802F0C3FC4FF4806008900120AB
:1023F0008DF8250000208DF8260002208DF824009D
:1024000008A93A4802F028FC0121022002F062FEED
:1024100001220B21354802F0AAFC4FF4006008901D
:1024200001208DF8250000208DF8260002208DF86F
:10243000240008A92D4802F00FFC0121084602F0F3
:102440006BFE4FF47A7090FBF4F006905320ADF8D9
:1024500014000020ADF81C00ADF8160005A94FF0DF
:10246000804002F0EEFF2249069808806020ADF817
:1024700000000120ADF8020000200290ADF80C0031
:1024800069464FF0804003F0F7F869464FF080400E
:1024900003F058F90821C80603F00BFA0821C80612
:1024A00003F010FA0121880703F036F801218807AC
:1024B00003F050F80AB010BD70B504460D460C4844
:1024C00000886043642190FBF1F631464FF0804074
:1024D00003F0A9F9064800886843642190FBF1F6EF
:1024E00031464FF0804003F0A0F970BD0004024077
:1024F0004E0000201CB50121202002F0EBFD04203D
:10250000009002208DF8050001208DF804000020C5
:102510008DF806006946564802F09EFB01212020F6
:1025200002F0D8FD0120009002208DF80500012066
:102530008DF8040000208DF8060069464C4802F032
:102540008BFB0121202002F0C5FD1020009002200D
:102550008DF8050001208DF8040000208DF806009C
:102560006946434802F078FB0121202002F0B2FDC9
:102570000820009002208DF8050001208DF804004D
:1025800000208DF806006946394802F065FB0121FC
:10259000202002F09FFD022000908DF80500012010
:1025A0008DF8040000208DF806006946304802F0DE
:1025B00053FB0121202002F08DFD202000900220FD
:1025C0008DF8050001208DF8040000208DF806002C
:1025D0006946274802F040FB1CBD70B506460C4614
:1025E0001546012E04D10121214802F0B3FB03E07E
:1025F00001211F4802F0ACFB24B904211C4802F061
:10260000A7FB03E004211A4802F0A4FB012D04D12A
:102610001021174802F09EFB03E01021144802F03D
:1026200097FB70BD70B506460C461546012E04D1C9
:1026300002210F4802F08EFB03E002210C4802F059
:1026400087FB24B908210A4802F084FB03E0082133
:10265000074802F07DFB012D04D12021044802F03F
:1026600079FB03E02021024802F072FB70BD0000FC
:102670000014024000B589B00121084602F05DFD5A
:1026800002220621874802F072FB022207218548B8
:1026900002F06DFB01A802F027FBC0200190022090
:1026A0008DF8080001A97F4802F0D6FA0121022026
:1026B00002F032FD7C4802F017FE06A802F0F5FE9B
:1026C0000020ADF818005F2007900020ADF8200032
:1026D000ADF81A0006A9744802F0B3FE00231A46AA
:1026E0000321714803F021FC03A803F0B8FA062087
:1026F000ADF8140003A96C4803F07AFA00206A4987
:10270000243108600121684802F024FF01210846B5
:1027100002F0E0FC02220021624802F028FB0222C3
:102720000121604802F023FB01A802F0DDFA03203A
:10273000019002208DF8080001A95A4802F08CFA95
:102740000121082002F0E8FC584802F0CDFD06A85F
:1027500002F0ABFE0020ADF818005F2007900020CB
:10276000ADF82000ADF81A0006A9504802F069FE45
:1027700000231A4603214D4803F0D7FB03A803F0BA
:102780006EFA0620ADF8140003A9484803F030FAA9
:1027900000204649243108600121444802F0DAFE55
:1027A0000121084602F096FC01220C213D4802F06E
:1027B000DEFA4FF48050019002208DF808000020CE
:1027C0008DF80B0001A9374802F046FA01210846AE
:1027D00002F0B3FC364802F087FD47F23050079014
:1027E0000020ADF81800ADF82000ADF81A0006A9D9
:1027F0002F4802F026FE00231A4619462C4803F003
:1028000069FB00212A4802F065FE2948008940F44E
:102810007060274908810121254802F09BFE0121B3
:10282000102002F057FC02220021224802F09FFAF9
:102830000120019002208DF8080000208DF80B0087
:1028400001A91C4802F008FA0121042002F064FCEE
:10285000194802F049FD47F2305007900020ADF8CA
:102860001800ADF82000ADF81A0006A9124802F0D1
:10287000E8FD00231A4619460F4803F02BFB002100
:102880000D4802F027FE0C480830008840F47060C4
:102890000949083108800121074802F05BFE09B0B0
:1028A00000BD00000000024000040040000C004099
:1028B0000000014000100240000800401CB501214A
:1028C000202002F007FC4FF44070009000208DF8AB
:1028D000040001208DF8070069463D4802F0BCF96C
:1028E0000121022002F0F6FB0320009000208DF869
:1028F000040001208DF807006946364802F0ACF963
:102900000121202002F0E6FBC020009000208DF87D
:10291000040001208DF8070069462D4802F09CF95B
:102920001CBD2DE9F0414FF48071294802F0F6F901
:1029300004464FF40071264802F0F0F905460121E3
:10294000244802F0EBF906460221224802F0E6F99B
:10295000074604EA05003040384008B9012000E08D
:1029600000201D490870BDE8F08110B54FF480715A
:10297000174802F0D3F90446204610BD10B54FF4B5
:102980000071134802F0CAF90446204610BD10B584
:102990000121104802F0C2F90446204610BD10B5CE
:1029A00002210C4802F0BAF90446204610BD10B5C9
:1029B0004021074802F0B2F90446204610BD10B588
:1029C0008021034802F0AAF90446204610BD000009
:1029D000001402400004024050000020704700BF75
:1029E000FEE700BFFEE700BFFEE700BFFEE770475F
:1029F0007047704710B500F00BFA00F043FB00F091
:102A0000C4FA00F059FEDA480168DA48006800F0BC
:102A1000ADFEFFF733FBFFF784FFD74890ED000AC8
:102A2000B5EEC00AF1EE10FA05D1D4480088401C7A
:102A3000D249088002E00020D049088010BD10B5BE
:102A4000002440F22551CE4803F080FC40B3CC482E
:102A500003F0BAFB04467B2C05D10120C94908804C
:102A60000020C94908807E2C02D10020C549088079
:102A7000C4480088012813D1C449C34A12888C5421
:102A8000C1480088401CC0490880084600880528C5
:102A900006DB01F08DF901F080FA0020BA490880C8
:102AA00040F22771B64803F051FC28B1002240F2F1
:102AB0002771B34803F00FFC10BD10B5002440F29D
:102AC0002551B34803F042FC40B3B14803F07CFB0E
:102AD00004467B2C05D10120AE4908800020AE4978
:102AE00008807E2C02D10020AA490880A9480088CD
:102AF000012813D1A549A84A12888C54A6480088F9
:102B0000401CA549088008460088052806DB01F01E
:102B10004FF901F042FA00209F49088040F22771E6
:102B20009B4803F013FC28B1002240F2277198481B
:102B300003F0D1FB10BD9948008800F02000002868
:102B400076D09648001D00889549964A1278885498
:102B500000209249088093480078401C91490870F1
:102B600008460078042853D18F48007801284FD1B7
:102B700000208E4908708A480078AA280ED188481B
:102B80004078AA280AD186488178C07801EB0020D5
:102B90008749088001208549087024E080488078B2
:102BA000AA280ED17E48C078AA280AD17C4801788C
:102BB000407801EB00207E49088001207B490870A5
:102BC00011E077484078AA280DD175488078AA2866
:102BD00009D17348C178007801EB0020744908805E
:102BE0000120724908707148007801280DD171499F
:102BF00008700020704908806D480088B0F57A7F21
:102C000003DB40F2E7306A4908800020654908701C
:102C10006248008800F0080050B16048001D00883C
:102C2000C1B25F485F4A1278815400205B49088036
:102C3000704708B540F22551604803F087FBE8B1C2
:102C40005E48001D00885E495E4A127888545E48DE
:102C5000007828B15B480078401C5A4908700FE0A2
:102C6000574800781B2805D101205649087056495D
:102C7000087005E000205349087001E0BDF900002C
:102C800008BD10B5002440F22551504803F05EFB0A
:102C900040B34E4803F098FA0446552C05D1012064
:102CA0004B49088000204B4908807E2C02D100202F
:102CB0004749088046480088012813D13349454ACE
:102CC00012888C5443480088401C424908800846BA
:102CD0000088082806DB01F06BF801F05EF900209F
:102CE0003C49088040F22771384803F02FFB28B197
:102CF000002240F22771354803F0EDFA10BD10B5FF
:102D000040F22551344803F021FB10B33248001D36
:102D100000883249087000202F4908802F48007829
:102D2000AA2802D100202E4908702C4800782D498D
:102D30002B4A127888542A480078401C2849087089
:102D400008460078082804D1002008700120264990
:102D5000087040F22551204803F0F8FA38B11E48B7
:102D6000001D00881D49087000201B49088010BD07
:102D7000E0000020DC000020A4000020540000201F
:102D800000100140580000205600002012010020D1
:102D9000004400405C0000205A0000200048004031
:102DA0001005002003010020060100200201002080
:102DB0000A010020080100200C010020004C004006
:102DC000D0040020950000209F000020005000400B
:102DD000600000205E00002000140140330000204D
:102DE0003A0000201C02002039000020FDF764FB9F
:102DF00001F012FD01F0EEFC4FF47A7000F016F8CD
:102E000005E001F00DFA01F04FFCFDF7A8FBF8E733
:102E10001448006820B113480068401E114908603A
:102E2000704700E0401E0028FCD1704701B54FF408
:102E30007A71009848430C490968B0FBF1F00949E0
:102E4000086000BF074800680028FBD108BD06489D
:102E500000680449086000BF024800680028FBD1F0
:102E600070470000640000201400002000209FED47
:102E70004A1AB0EE410A9FED481AF0EE410A47495E
:102E800091ED001AB8EEC11A45490A780978491C33
:102E9000434B1970434901EB820181ED001A42490D
:102EA00091ED001AB8EEC11A40490A780978491C18
:102EB0003E4B19703E4901EB820181ED001A384901
:102EC00009780A2902D10021354A11703749097859
:102ED0000A2902D10021354A1170002013E031493E
:102EE00001EB800191ED001A31EE001AB0EE410ABB
:102EF0002F4901EB800191ED001A31EE201AF0EE1E
:102F0000410A411CC8B20A28E9DBB2EE041AC0EE3D
:102F1000011A2849C1ED001AB2EE041AC0EE811A56
:102F20002549C1ED001A70470020DFED1B0AB0EE05
:102F3000600A2249D1ED000A21490A780978491C22
:102F40001F4B19701F4901EB8201C1ED000A1946A0
:102F50000978642902D100211A46117000200AE084
:102F6000184901EB8001D1ED000A70EE800AB0EE45
:102F7000600A411CC8B26428F2DBDFED130A80EE60
:102F8000201A124981ED001A704700B5FFF7CCFFF7
:102F9000FFF76CFF00BD0000000000007C00002077
:102FA0006C00002040040020800000206D00002004
:102FB000680400207000002074000020A40000209D
:102FC00078000020B00200200000C8426800002005
:102FD00010B53A4800683A4908800021374824383B
:102FE00002F078FA37480068002805DA344800888B
:102FF00040423549086003E03148008832490860A2
:103000003248406A324908800021304802F062FAB2
:1030100030480068002805DA2D48008840422E49D3
:10302000086003E02A4800882B49086010BD10B5ED
:103030002A4802F053FA2A494843224908600021ED
:10304000264802F047FA1F4800684FF6FF7190FBD0
:10305000F1F000B240421B490860224802F03EFAFB
:103060001F4948431B49086000211E4802F032FAFC
:10307000184800684FF6FF7190FBF1F000B2154957
:10308000086010BD10B500F04EF817480068401CED
:103090001549086008460068142190FBF1F201FB15
:1030A000120008B9FFF7C3FF0F480068C82804DD05
:1030B00000200D490860FFF78BFF10BD2408004079
:1030C00090000020880000207C00002000000140CB
:1030D000920000208C0000208000002000040040AE
:1030E000AAAAAA02000C00408400002030B50246C3
:1030F0004FF6FF70002413E015786840521C00233F
:103100000AE000F0010525B140104AF201056840CF
:1031100000E040105D1CEBB2082BF2DB651CECB24A
:103120008C42E9DB30BD10B52DED048B3A480078B8
:10313000401C3949087008460078032804DB002049
:1031400008703648FDF7FAFB3548007807285FDB42
:1031500000203349087033490870334880790528C6
:1031600056D131480079314948702F48407908706C
:10317000084600882E4908802B4880782D49087021
:103180002948C078487002212A48FFF7AFFF274935
:1031900008800846008826490988884238D1254891
:1031A000407824490978401A032816DB2248007821
:1031B00048B92048007800EE100AB8EE400A1F48CF
:1031C00080ED000A21E01B48407800EE100AB8EEBE
:1031D000400A1A4880ED000A17E016490978154A96
:1031E0005278881803F0C4FA41EC190B9FED140BC8
:1031F00053EC102B03F064F941EC180B03F02EF99B
:1032000000EE100A0D4880ED000A00200E490870FB
:10321000BDEC048B10BD000094000020990000203C
:10322000950000209F000020D0040020A80000206E
:103230009600002090040020A0000020A4000020A0
:10324000000000000000004098000020FB4890EDC6
:10325000004ADFEDFB4A24EE244A80ED004A90ED5F
:10326000004AF848D0ED004A9FEDF75A04EE854A2F
:10327000F24880ED004AF54890ED004ADFEDF04A53
:1032800024EE244A80ED004A90ED004AF048D0ED4B
:10329000004A9FEDED5A04EE854AEC4880ED004A65
:1032A000E64890ED004AEB48D0ED004A34EE644A1F
:1032B000B0EE440A31EE004AB0EE441A30EE614AF4
:1032C000B0EE443AF0EE401AB7EE004A20EE044A5F
:1032D000DFEDE14A04EE814ADFEDDF4A04EE834A86
:1032E000DE4880ED004AD94890ED004ADC48D0ED38
:1032F000004A34EE644AF0EE440A32EE204AB0EE60
:10330000442A30EEE24AF0EE443AF0EE602AB7EE9C
:10331000004A20EE844ADFEDD04A04EE824ADFED17
:10332000CE4A04EEA34ACF4880ED004A704710B55C
:103330002DED088BCC48007818B1CC4800780128D6
:1033400005D19FEDC50ACA4880ED000A0CE0C648C9
:103350000078012808D1C748007800EE100AB8EEBE
:10336000400AC34880ED000AC3480088B0F57A7F60
:1033700041DAC148008878B3BF480088BF4909884E
:10338000884238D1BC480088C92807D0BA4800888C
:10339000CF2803D0B8480088D02802D100F0ECFA3A
:1033A00039E0B5480088652813D0B34800886628FE
:1033B0000FD0B148008867280BD0AF480088682834
:1033C00007D0AD480088692803D0AB4800886A2838
:1033D00003D100F0BBFB1EE00DE0A749088800EB1D
:1033E000D0714910A0EB410111B900F0AFFB12E020
:1033F00000F0C2FA0FE0A0480088A049098888427E
:1034000005D19D48008810B900F01EFA03E04FF680
:10341000FF70994908809A4890ED000ADFED990AFB
:1034200020EE200A80ED000A90ED000A9048D0EDD1
:10343000000A9FED951A00EE810A914880ED000A7E
:1034400090ED000A9148D0ED000A30EE600A9048F5
:1034500080ED000A8A4890ED000A8C48D0ED000A01
:1034600030EE200A8B4880ED000A8B480078022855
:1034700063D08948007801285FD17F480088B0F583
:103480007A7F41DC7C48008878B37B4800887B49A0
:103490000988884238D178480088C92807D07648FA
:1034A0000088CF2803D074480088D02802D100F0CB
:1034B00090FA42E070480088652813D06E48008872
:1034C00066280FD06C48008867280BD06A480088AF
:1034D000682807D068480088692803D066480088B3
:1034E0006A2803D100F05FFB27E00DE062490888FD
:1034F00000EBD0714910A0EB410111B900F053FB72
:103500001BE000F066FA18E05B4800885B49098818
:10351000884212D15848008878B940215F4801F0AC
:10352000FDFB20B180215D4801F0F8FB08B90120C6
:1035300000E0002008B900F0B6F9554890ED000A07
:103540004448D0ED000A30EE608A39EE080AB0EE49
:10355000409A78EE6A9AF0EE48AA9FED510A28EE5A
:10356000000ADFED3D0A00EE890ADFED4E0A00EEAB
:10357000A90A4D4880ED000A464890ED000A3848F7
:10358000D0ED000A70EE608A3BEE280AB0EE40BA39
:1035900038EEEBAAF0EE68BA9FED410A28EE800AF9
:1035A000DFED2D0A00EE8B0ADFED3E0A00EE8A0AFF
:1035B0003E4880ED000ABDEC088B10BD70473C48CA
:1035C00090ED002AF2EE002A32EEC22A394880ED50
:1035D000002A90ED002A30EE822AF0EE420A90EDA9
:1035E000002A32EE612AB0EE421A90ED002AF0EE87
:1035F000421A20480078232802D1B0EE040A0CE0D9
:103600001C4800782D2802D1B0EE0C0A05E01948BC
:103610000078372801D1B1EE020A264890ED002A41
:1036200020EE022ADFED0C2A02EEA02ADFED1D2A91
:1036300002EE812A154880ED002A7047CC00002058
:10364000643B7F3F2C010020A69B443BD000002020
:10365000300100207000002000000000D400002095
:1036600074000020D80000203B0000205000002003
:10367000B4000020300000200A0100203E0000209D
:10368000B800002077BE7F3F6F12833AB000002061
:10369000BC000020C00000203100002000140240C7
:1036A0009A99993FCDCC4C3DC4000020C800002021
:1036B000A4000020AC00002010B52348007860BBB7
:1036C000FFF77DFFFFF77AFFFFF731FE1F4890ED10
:1036D000000AB5EEC00AF1EE10FA0DD11C480088C0
:1036E0004FF6FF71884207D11FED250A194880ED7A
:1036F000000A194880ED000A174890ED000ABDEE57
:10370000C00A164880ED000A124890ED000ABDEE8E
:10371000C00A134880ED000A15E00B480078012824
:1037200011D1FFF793FD0F4890ED000ABDEEC00ADE
:103730000A4880ED000A0C4890ED000ABDEEC00A70
:10374000074880ED000A10BD10010020A4000020F1
:103750000A010020C8000020C4000020DC00002076
:10376000E0000020D4000020D800002070B50446FE
:103770000D46002C1BDA14F1640F01DA6FF06304BC
:1037800014F1030F01DD6FF002040022012108464D
:10379000FEF723FF64422B4800886043642190FBBE
:1037A000F1F631464FF0804002F03DF815E0642C10
:1037B00000DD6424032C00DA0324002211460120DA
:1037C000FEF70BFF1F4800886043642190FBF1F671
:1037D00031464FF0804002F026F8002D1BDA15F13B
:1037E000640F01DA6FF0630515F1030F01DD6FF06F
:1037F0000205002201210846FEF714FF6D42114820
:1038000000886843642190FBF1F631464FF0804018
:1038100002F00BF815E0642D00DD6425032D00DABD
:103820000325002211460120FEF7FCFE0548008812
:103830006843642190FBF1F631464FF0804001F07F
:10384000F4FF70BD4E000020FE48007850BBFE48DB
:103850000068401CFC49086008460068B0F5FA7F23
:1038600020DD9FEDFA0AFA4880ED000AF94890ED54
:10387000000AF1EE040AB4EEE00AF1EE10FA11D2F9
:10388000F54890ED000AF1EE040AB4EEE00AF1EE1C
:1038900010FA07D20120EB4908700020EA490860BD
:1038A000EE490870704710B5E648007801281BD132
:1038B000BAEE0E0AEA4880ED000AB2EE0E0AE948B6
:1038C00080ED000AE8480068401CE74908600846A7
:1038D000006840F6C41188424DDD0020E2490860CE
:1038E0000220D849087046E0D6480078022828D13E
:1038F000BAEE0E0ADA4880ED000AB2EE0E0AD94896
:1039000080ED000AD94890ED000AFFEE000AB4EEFF
:10391000E00AF1EE10FA2EDD90ED000AF7EE000A53
:10392000B4EEE00AF1EE10FA25D2D14890ED000A8B
:10393000B5EEC00AF1EE10FA1DD00320C14908709F
:1039400019E0C0480078032815D10020BD4908704F
:103950004FF6FF70C74908800020C7490880084615
:10396000028850214FF42F70FDF79DFB9FEDB70AA1
:10397000C24880ED000A10BDC148007840BBB24883
:103980000068401CB049086008460068B0F5FA7F3E
:103990001EDD9FEDAE0AAE4880ED000AAD4890ED09
:1039A000000AF1EE040AB4EEE00AF1EE10FA0FD2CA
:1039B000A94890ED000AF1EE040AB4EEE00AF1EE37
:1039C00010FA05D20120AE49087000209E49086017
:1039D000704710B5AA48007801281BD1BAEE0E0A2C
:1039E0009F4880ED000AB2EE0E0A9E4880ED000A64
:1039F000A4480068401CA34908600846006840F6D7
:103A0000C411884205DD00209E49086002209C49BF
:103A100008709AE09A48007802282DD19FED8B0A11
:103A20008F4880ED000A9FED890A8E4880ED000ADC
:103A30004021954801F072F9012806D18021924871
:103A400001F06CF9012800D100E000208F490870D6
:103A500008460078012878D18D480068401C8C49C0
:103A6000086008460068B0F57A7F6EDD00200860C7
:103A700003208349087068E08148007803281BD13F
:103A80009FED720A764880ED000A9FED700A754836
:103A900080ED000A6C480068401C6B4908600846CD
:103AA000006840F2DC5188424FDD00206649086022
:103AB00004207349087048E071480078042828D130
:103AC000BAEE0E0A664880ED000AB2EE0E0A6548AC
:103AD00080ED000A654890ED000AFFEE000AB4EEA2
:103AE000E00AF1EE10FA30DD90ED000AF7EE000A80
:103AF000B4EEE00AF1EE10FA27D25D4890ED000A2C
:103B0000B5EEC00AF1EE10FA1FD005205C4908702E
:103B10001BE05B480078052817D100205849087041
:103B20004FF6FF70534908800020534908805948D8
:103B3000007800EE100AB8EE400A454880ED000A11
:103B40009FED420A4D4880ED000A10BD52480078B2
:103B500040BB3D480068401C3B490860084600687F
:103B6000B0F5FA7F1EDD9FED390A394880ED000A75
:103B7000384890ED000AF1EE040AB4EEE00AF1EEE6
:103B800010FA0FD2344890ED000AF1EE040AB4EEB8
:103B9000E00AF1EE10FA05D201203F49087000203A
:103BA00029490860704710B53B48007801281BD1AF
:103BB000B2EE0E0A2A4880ED000ABAEE0E0A294833
:103BC00080ED000A35480068401C3449086008460A
:103BD000006840F6C411884205DD00202F490860C6
:103BE00002202D490870CBE02B48007802285ED1D6
:103BF0009FED160A1A4880ED000A9FED140A194835
:103C000080ED000A4021204801F088F8012806D103
:103C100080211D4801F082F8012800D100E0002039
:103C20001A4908700846007801283FD11C480068EE
:103C3000401C1B49086008460068B0F57A7F35DDF6
:103C400000202FE0E6000020FC0000200000000023
:103C5000B400002070000020740000203B00002011
:103C6000BC000020C0000020F8000020AC000020B4
:103C7000A40000200A0100203E000020B80000201F
:103C8000E4000020F00000200014024000010020A9
:103C9000E800002030000020E5000020F4000020B3
:103CA000EC000020086003203649087068E03548C1
:103CB000007803281BD11FED1B0A334880ED000A52
:103CC0001FED1E0A314880ED000A31480068401C93
:103CD0002F4908600846006840F2DC5188424FDDF9
:103CE00000202B49086004202649087048E0254838
:103CF0000078042828D1B2EE0E0A234880ED000A8D
:103D0000BAEE0E0A214880ED000A224890ED000A22
:103D1000FFEE000AB4EEE00AF1EE10FA30DD90EDAD
:103D2000000AF7EE000AB4EEE00AF1EE10FA27D22C
:103D3000194890ED000AB5EEC00AF1EE10FA1FD056
:103D40000520104908701BE00E480078052817D19F
:103D500000200C4908704FF6FF70104908800020C1
:103D60000F4908800F48007800EE100AB8EE400AAC
:103D70000D4880ED000A1FED4B0A0C4880ED000A4B
:103D800010BD0000E5000020BC000020C0000020A5
:103D9000FC000020AC000020A40000200A0100204C
:103DA0003E00002030000020B4000020B8000020B9
:103DB0000020FE49086048608860C860086148616A
:103DC0008861C861C862086348638863F8484078BE
:103DD00006280ED1F648807807280AD1F448C07822
:103DE000082806D1F2480079092802D1012008608C
:103DF000D2E0EF48407868B9ED488078032809D1CF
:103E0000EB48C07830B9EA48007918B90120E74991
:103E10004860C1E0E648407868B9E548807850B924
:103E2000E348C078032806D1E148007918B9012099
:103E3000DE498860B0E0DE48407868B9DC488078C8
:103E400050B9DB48C078012806D1D948007918B9A3
:103E50000120D649C8609FE0D548407870B9D44861
:103E6000807801280AD1D248C078072806D1D048E6
:103E7000007918B90120CD4908628DE0CC4840781E
:103E800070B9CB48807801280AD1C948C078012888
:103E900006D1C748007918B90120C44908617BE000
:103EA000C348407870B9C248807801280AD1C04818
:103EB000C078032806D1BE48007918B90120BB4953
:103EC000486169E0BA48407870B9B94880780328F9
:103ED0000AD1B748C078012806D1B548007918B989
:103EE0000120B249886157E0B148407870B9B048C4
:103EF000807803280AD1AE48C078032806D1AC48A0
:103F0000007918B90120A949C86145E0A84840785E
:103F100070B9A748807809280AD1A548C078022836
:103F200006D1A348007918B90120A049C86233E03E
:103F30009F48407870B99E48807809280AD19C48EB
:103F4000C078032806D19A48007918B9012097490A
:103F5000086321E09648407870B995488078092830
:103F60000AD19348C078012806D19148007918B940
:103F700001208E4948630FE08D48407860B98C4835
:103F80008078092808D18A48C07828B988480079FB
:103F900010B9012085498863704710B59FED850AE7
:103FA000854880ED000A854880ED000A7F4800685A
:103FB00001280CD100207D490860814890ED000A5D
:103FC000F0EE000A30EE200A80ED000AABE0774800
:103FD000406801280CD1002074494860784890ED71
:103FE000000AF0EE000A30EE600A80ED000A9AE066
:103FF0006E48806801280DD100206C498860BBEEB6
:10400000090A6E4880ED000AB3EE090A6A4880ED9D
:10401000000A88E06548C06801280DD10020634986
:10402000C860B3EE090A654880ED000ABBEE090AD4
:10403000614880ED000A76E05C480069012806D1FD
:1040400000205A49086101205E4908706BE057481A
:104050004069012806D100205449486101205A498D
:10406000087060E051488069012806D100204F495E
:10407000886101205549087055E04C48C069012805
:1040800006D100204949C8610120514908704AE021
:104090004648C06A01280BD100204449C86201206B
:1040A0004C4908709FED430A454880ED000A3AE00C
:1040B0003E48006B012811D100203C490863454966
:1040C00008709FED3C0A3E4880ED000A002108463A
:1040D000FCF704FD01204049087024E03348406AA1
:1040E000012803D10020314948621CE02F48006AB2
:1040F000012803D100202D49086214E02B48406BB1
:10410000012806D10020294948630120334908705D
:1041100009E02648806B012805D1002023498863E7
:1041200001202F490870264890ED000ADFED2D0A86
:10413000B4EEE00AF1EE10FA03DB9FED2A0A80EDFF
:10414000000A1F4890ED000ADFED270AB4EEE00AEE
:10415000F1EE10FA03D89FED240A80ED000A194809
:10416000007801280AD19FED130A154880ED000A56
:104170001E4880ED000A1E4880ED000A104890EDB0
:10418000000A0E48D0ED000A30EE200A184880EDF3
:10419000000A0B4890ED000A0748D0ED000A30EE07
:1041A000200A124880ED000A24E0000030050020BB
:1041B0001201002000000000240100202001002046
:1041C0002801002011010020180100201901002001
:1041D0001A010020100100202F0000201B010020E8
:1041E0001C01002000008C4200008CC23001002025
:1041F0002C0100201FED110A064880ED000A064838
:1042000080ED000ABCEEC00A10EE100A03490870E7
:1042100010BD000024010020200100201101002019
:1042200008B5C348007800286ED1C248007858B954
:10423000C1480078012807D100F0B6FA0922BF4929
:10424000BF48FCF7B0FB5AE1BE480078012807D10F
:104250000020BC4908701A211F20FCF73FFC4EE1EA
:10426000B8480078012807D10020B64908701A2103
:104270001F20FCF733FC42E1B3480078012807D146
:104280000020B14908701A212020FCF727FC36E1F4
:10429000AE480078012807D10020AC4908701A21E7
:1042A0002120FCF71BFC2AE1A9480078012807D14E
:1042B0000020A74908701A212220FCF70FFC1EE1FC
:1042C000A4480078012807D10020A24908701A21CB
:1042D0002320FCF703FC12E1964800780128B2D1B4
:1042E00006209D4908701A209C49087001209C49AD
:1042F000088064209B49088047F230509A49088022
:1043000001209A490870FAE08948007802281BD1F8
:1043100097480078052190FBF1F201FB12000B3069
:104320008D49087019208D49087001208C4908803A
:1043300064208C49088000208B49088001208B492B
:1043400008708C490870DAE079480078012886D135
:104350008948008840F6B831884222DD87480078D5
:10436000F8B987480078E0B986480078012818D164
:1043700085480078A8B90120774908701A20774944
:1043800008700120764908806420764908804FF43F
:104390007A60754908800120744908707B4908706B
:1043A000ADE07B4890ED000AB5EEC00AF1EE10FAE0
:1043B0001AD076480078012816D102206649087084
:1043C0001A20664908700120654908806420654903
:1043D00008804FF4FA60644908800120634908703E
:1043E00000206A4908708AE05348007801282ED1DD
:1043F0006248007858BB6248007840BB614800784A
:10440000012824D16048007808BB49480078012879
:1044100003D14FF47A70FEF709FD47480078012870
:104420006DD103204C4908701A204C4908700120B6
:104430004B49088064204B49088041F270704A491A
:1044400008800120494908705249087057E03A48ED
:104450000078D0B94F480078012816D102203E4993
:1044600008701A203D49087001203D4908806420E9
:104470003C4908804FF4FA603B49088001203B49E1
:10448000087000204349087039E03C480078022851
:1044900003D03B480078022816D105202E49087029
:1044A0001A202E49087001202D49088064202D49CA
:1044B00008804FF4FA602C49088001202B490870CD
:1044C0000020354908701AE02C480078032803D0F2
:1044D0002B480078032812D104201F4908701A20A5
:1044E0001E49087001201E49088064201D4908806B
:1044F00041F288301C49088001201C4908701B4883
:104500000078012812D10020184908701648008848
:10451000009014480388124802881048007841B27D
:104520000D480078FCF710FB1C49087008BD00001E
:104530003100002010010020500000206C050020F8
:104540000050004018010020190100201A0100202D
:104550001B0100201C010020370100203801002031
:104560003A0100203C0100203E01002035010020DE
:10457000580100204001002054000020E4000020E9
:10458000E50000203B000020E60000203401002070
:104590006800002042010020430100203901002072
:1045A00010B504469FED720A724880ED000A9FED37
:1045B000700A714880ED000A2046FEF737FC10BDF6
:1045C00010B50446B3EE0E0A6A4880ED000AB3EE59
:1045D0000E0A694880ED000A2046FEF727FC9FED91
:1045E000640A644880ED000A9FED610A624880ED2C
:1045F000000AC820FEF71AFC10BD10B50446BBEE39
:104600000E0A5C4880ED000ABBEE0E0A5A4880EDA7
:10461000000A2046FEF70AFC9FED550A554880ED3A
:10462000000A9FED530A544880ED000AC820FEF7A7
:10463000FDFB10BD10B50446BBEE0E0A4D4880EDE3
:10464000000AB3EE0E0A4C4880ED000A2046FEF741
:10465000EDFB9FED470A474880ED000A9FED440AB5
:10466000454880ED000AC820FEF7E0FB10BD10B5FC
:104670000446B3EE0E0A3F4880ED000ABBEE0E0A78
:104680003D4880ED000A2046FEF7D0FB9FED380A3A
:10469000384880ED000A9FED360A374880ED000A61
:1046A000C820FEF7C3FB10BD10B5344800780228BF
:1046B0005CD133480078012858D132480078401C3A
:1046C000304908704DE04FF47A70FFF779FF4FF4EE
:1046D0007A70FFF792FF4FF47A70FFF7ABFF4FF459
:1046E0007A70FFF7C4FF4FF47A70FFF7C0FF4FF402
:1046F0007A70FFF79FFF4FF47A70FFF77EFF4FF459
:104700007A70FFF75DFF41F28830FFF793FF41F2C7
:104710008830FFF7ACFF4FF47A70FFF751FF4FF48A
:104720007A70FFF76AFF4FF47A70FFF783FF4FF458
:104730007A70FFF79CFF4FF47A70FFF798FF4FF401
:104740007A70FFF777FF4FF47A70FFF756FF4FF458
:104750007A70FFF735FF4FF4FA60FFF721FF601C16
:1047600084B2012CAFDB00200549087010BD0000A9
:10477000000000002C01002030010020310000204A
:1047800040010020580100205521104A11701E21BF
:104790005170114688700021D17011715171917161
:1047A000D1717E21117270475520084908701F2071
:1047B00048700748007888700020C87008714871F8
:1047C0008871C8717E200872704700006C05002057
:1047D000310000201CB50121402000F07BFC20208E
:1047E000009001208DF804008DF8060002208DF85D
:1047F00005006946074800F02FFA2021054800F01F
:10480000A9FA4FF4FA60FEF711FB2021014800F0ED
:104810009FFA1CBD0018024010B5894800F0B9FB92
:1048200010BD10B5FBF79BFE10BD10B58548007894
:1048300001280AD100208349087083480278834800
:10484000017883480078FDF7C8FE82480078012887
:104850000AD100207F4908707B4802787B480178A4
:104860007B480078FDF7DEFE10BD10B57A48007871
:10487000012821D100207849087078480088FDF788
:10488000A7FD77480078774909884843642190FB61
:10489000F1F421464FF0804000F0C5FF72480078E7
:1048A000704909884843642190FBF1F421464FF098
:1048B000804000F0BAFF19E06A48008800EB8000F1
:1048C0008000642190FBF1F421464FF0804000F01D
:1048D000AAFF6448008800EB80008000642190FB00
:1048E000F1F421464FF0804000F09FFF10BD10B55D
:1048F000002211460120FDF770FE00221146012022
:10490000FDF790FE574800886421484390FBF1F47E
:1049100021464FF0804000F086FF52480088642115
:10492000484390FBF1F421464FF0804000F07DFFBA
:1049300010BD10B5002201210846FDF74EFE0022F1
:1049400001210846FDF76EFE464800886421484371
:1049500090FBF1F421464FF0804000F064FF4148A5
:1049600000886421484390FBF1F421464FF08040D9
:1049700000F05BFF10BD10B5012200211046FDF7CD
:104980002CFE10BD10B5012200211046FDF74AFE95
:1049900010BDF8B504460D46164634480078012887
:1049A00010D1002031490870084600890F46009058
:1049B000FB88BA88BF7879B22C4F7878FCF7C4F8B6
:1049C00039468872F8BD10B5FDF734FC10BD10B53E
:1049D000FDF754FB10BD10B5FDF7C7FF2449087063
:1049E000FDF7CCFF23490870FDF7D1FF224908707D
:1049F000FDF7D5FF21490870FDF7D9FF2049087060
:104A0000FDF7DDFF1F49087010BD00211E4800F0B2
:104A100061FD14E01C48243000681C490860084609
:104A200000684C2801D9FFF7A6FF1948406A1949C8
:104A30000860084600684C2801D9FFF7A3FFE9E7A2
:104A400078050020830100208201002081010020E0
:104A50008001002084010020660100206401002004
:104A6000670100204E000020680100206A0100203C
:104A70008501002086010020870100208801002098
:104A8000890100208A0100200008004078010020F0
:104A9000000001407C01002033490143334A11608A
:104AA000704770B5002100230F22C47824B32F4C27
:104AB000246804F4E064C4F5E064C4F30721C1F1A0
:104AC0000404E3B20A4144789C40E1B28478144083
:104AD00021430C07210E264C05786155047804F01B
:104AE0001F050124AC4005786D114FF0E02606EB60
:104AF0008505C5F8004109E0047804F01F0401258C
:104B0000A5401C4C0678761144F8265070BD1A4A10
:104B10000A400243154B1B1F1A60704739B1134AF4
:104B2000121D12680243114B1B1D1A6006E00F4A4A
:104B3000121D126882430D4B1B1D1A60704704281A
:104B400008D14FF0E021096941F004014FF0E02263
:104B5000116107E04FF0E021096921F004014FF0F5
:104B6000E0221161704700000000FA050CED00E042
:104B700000E400E080E100E080FFFF1F10B5044684
:104B80008C48844208D10121084600F0E7FA002150
:104B9000012000F0E3FA5EE08748844208D1012159
:104BA000022000F0DBFA0021022000F0D7FA52E0E8
:104BB0008248844208D10121042000F0CFFA00216C
:104BC000042000F0CBFA46E07D48844208D1012160
:104BD000082000F0C3FA0021082000F0BFFA3AE0F4
:104BE0007848844208D10121102000F0B7FA002152
:104BF000102000F0B3FA2EE07348844208D101215E
:104C0000202000F0ABFA0021202000F0A7FA22E0DB
:104C10006E48844208D10121402000F09FFA002113
:104C2000402000F09BFA16E06948844208D1012137
:104C3000802000F093FA0021802000F08FFA0AE033
:104C40006448844207D10121801500F087FA0021D1
:104C5000A01500F083FA10BDF0B50A46002100232C
:104C6000002400BF3DE0012505FA01F3156805EABF
:104C700003049C4234D105684F000326BE40B5436F
:104C8000056015794E00B540066835430560157915
:104C9000012D02D01579022D16D185684F0003260B
:104CA000BE40B543856055794E00B54086683543B2
:104CB0008560456801268E40B54345604568967914
:104CC0008E40B6B235434560C5684F000326BE40EE
:104CD000B543C560D5794E00B540C6683543C5605B
:104CE000491C1029BFD3F0BD4FF6FF7101600021B0
:104CF000017141718171C171704708B54FF4803203
:104D00000092009A0A430092009AC261C161009A1F
:104D1000C261C2690092C269009208BD02460020C9
:104D200013690B4201D0012000E0002070470146CA
:104D3000086980B270470246002053690B4201D0D7
:104D4000012000E0002070470146486980B27047AA
:104D500001837047418370470AB1018300E04183BA
:104D600070474161704742694A4042617047F0B5FF
:104D7000002300244D07ED0E02FA05F3CE1000F1DA
:104D8000200555F826504E07F70E0F26BE40B543B6
:104D9000CF1000F1200646F82750CE1000F1200574
:104DA00055F8265045EA0304CE1000F1200545F8D9
:104DB0002640F0BD0000024000040240000802400E
:104DC000000C024000100240001402400018024093
:104DD000001C024000200240FA48006840F0010038
:104DE000F84908600020F74908310860F548006874
:104DF000F5490840F3490860F448091D0860081F98
:104E0000006820F48020091F08600020ED490C3163
:104E1000086070470021EB4A921C1170114608701F
:104E2000704710B501460022002300204A11012AD4
:104E300002D1E44C236808E0022A03D1E14C70342B
:104E4000236802E0DF4C7434236801F01F02012460
:104E500094401C4201D0012000E0002010BD38B574
:104E6000002000900024002500BF3120FFF7D9FF6B
:104E700005460098401C00900098B0F5C06F01D026
:104E8000002DF2D03120FFF7CCFF08B1012400E063
:104E90000024204638BD01460020CA4A106820F090
:104EA000F80040EAC10010607047C94908607047C7
:104EB0000021C44A703211701170012802D00428F8
:104EC0000AD104E00121BF4A7032117005E00521CA
:104ED000BC4A7032117000E000BF00BF7047BD498E
:104EE00008607047BA4908667047B94988667047D4
:104EF000B74908677047B649C86470470246002042
:104F0000B04B0833186820F0EC6042EA0103184304
:104F1000AC4B08331860704702460020A94B083399
:104F2000186820F0784042EA01031843A54B083383
:104F30001860704701460020A24A0832106820F02D
:104F400003000843106070479E480830006800F076
:104F50000C007047014600209A4A0832106820F081
:104F6000F00008431060704701460020954A08325F
:104F7000106820F4E050084310607047014600209C
:104F8000904A0832106820F4604040EAC100106086
:104F90007047F0B5002100220024022500260223DC
:104FA000884F08373F6807F00C0121B1042905D06C
:104FB000082937D105E0884F076036E0874F076042
:104FC00033E0804F3F1D3F68C7F380567D4F3F1D44
:104FD0003F6807F03F036EB1804FB7FBF3F7DFF890
:104FE000E4C10CF1040CDCF800C0CCF3881C07FB16
:104FF0000CF40CE0784FB7FBF3F7DFF8C8C10CF105
:10500000040CDCF800C0CCF3881C07FB0CF46D4FDB
:105010003F1D3F68C7F301477F1C7D00B4FBF5F7D8
:10502000076002E06C4F076000BF00BF654F0837A4
:105030003F6807F0F0010909694F7A5C0768D740BB
:105040004760604F08373F6807F4E051890A644FB2
:105050007A5C4768D74087605A4F08373F6807F443
:105060006041490B5E4F7A5C4768D740C760F0BD2E
:10507000002100F44072B2F5407F0AD1514A083253
:10508000116821F4F811574A024011434D4A083281
:1050900011604C4A70321268C0F30B031A43494B3B
:1050A00070331A6070474B4944390860704749496A
:1050B0004039086070470021421E114370470021AB
:1050C000421E41EA022170470021014370474649D0
:1050D0000860704739B13B4A303212680243394B9D
:1050E00030331A6006E0374A303212688243354B5B
:1050F00030331A60704739B1324A34321268024391
:10510000304B34331A6006E02E4A34321268824340
:105110002C4B34331A60704739B12A4A4032126836
:105120000243284B40331A6006E0264A4032126898
:105130008243244B40331A60704739B1214A4432CC
:10514000126802431F4B44331A6006E01D4A443282
:10515000126882431B4B44331A60704739B1194AB5
:10516000103212680243174B10331A6006E0154ADA
:10517000103212688243134B10331A60704739B1F2
:10518000104A1432126802430E4B14331A6006E0C0
:105190000C4A1432126882430A4B14331A60704767
:1051A00039B1084A203212680243064B20331A6094
:1051B00006E0044A203212688243024B20331A6010
:1051C0007047000000380240FFFFF6EA103000246C
:1051D00000004742800E47420024F40000127A008B
:1051E0008B010020FFFCFF0FE011474229B13D4A2F
:1051F000126802433B4B1A6004E03A4A1268824349
:10520000384B1A60704739B1364A2C321268024363
:10521000344B2C331A6006E0324A2C321268824337
:10522000304B2C331A60704739B12E4A3032126835
:1052300002432C4B30331A6006E02A4A303212689F
:105240008243284B30331A60704739B1254A3C32CB
:1052500012680243234B3C331A6006E0214A3C3279
:10526000126882431F4B3C331A60704739B11D4AA4
:105270004032126802431B4B40331A6006E0194A61
:10528000403212688243174B40331A6070477047B0
:1052900039B1144A173A12780243124B173B1A706D
:1052A00006E0104A173A127882430E4B173B1A70E9
:1052B00070470C485030006840F080700949503108
:1052C0000860704701460020064A183A12680A42F0
:1052D00001D0012000E00020704702491639087013
:1052E000704700002438024010B50446FE4884424E
:1052F00008D101210846FFF779FF00210120FFF7BF
:1053000075FF9DE0B4F1804F08D101210846FFF7F9
:1053100047FF00210120FFF743FF91E0F34884425B
:1053200008D101210220FFF73BFF00210220FFF7F7
:1053300037FF85E0EE48844208D101210420FFF7C1
:105340002FFF00210420FFF72BFF79E0E94884427A
:1053500008D101210820FFF723FF00210820FFF7D3
:105360001FFF6DE0E448844208D101211020FFF7BF
:1053700017FF00211020FFF713FF61E0DF48844290
:1053800008D101212020FFF70BFF00212020FFF78B
:1053900007FF55E0DA48844208D101210220FFF7D7
:1053A00025FF00210220FFF721FF49E0D548844274
:1053B00009D101210804FFF719FF00214FF48030C3
:1053C000FFF714FF3CE0D048844209D10121480492
:1053D000FFF70CFF00214FF40030FFF707FF2FE02D
:1053E000CA48844209D101218804FFF7FFFE002149
:1053F0004FF48020FFF7FAFE22E0C548844208D12E
:1054000001214020FFF7CCFE00214020FFF7C8FE1D
:1054100016E0C048844208D101218020FFF7C0FE79
:1054200000218020FFF7BCFE0AE0BB48844207D180
:1054300001218015FFF7B4FE0021A015FFF7B0FE93
:1054400010BD00220288A84B98420ED0AC4B984267
:105450000BD0B0F1804F08D0A44B984205D0A44B9C
:10546000984202D0A34B984204D14FF68F731A4052
:105470004B881A43A04B984207D0A04B984204D0C7
:105480004FF6FF431A400B891A4302804B68C362F0
:105490000B880385944B984202D0994B984201D1D6
:1054A0008B7A03860123838270474FF0FF3141607E
:1054B00000210180018141808172704701858282D3
:1054C00070470A46002101884FF68F731940114337
:1054D0000180704741627047C16270470146486A67
:1054E00070470146088D704721B1028842F00202E0
:1054F000028004E002884FF6FD731A400280704774
:1055000021B1028842F00402028004E002884FF6D2
:10551000FB731A400280704721B1028842F080027A
:10552000028004E002884FF67F731A4002807047C1
:1055300002884FF6F7731A40028002880A430280FD
:10554000704702884FF6FF431A40028002880A43E0
:105550000280704721B1028842F00102028004E01B
:1055600002884FF6FE731A400280704770B500241F
:1055700000220023058C4FF6FE7635400584028C10
:105580008388048B4FF68F752C40B51E2C400D88F8
:105590002C43751E2A408D892A434D882A43524D3B
:1055A000A84202D0564DA84213D14FF6F7752A40B3
:1055B000CD892A434FF6FB752A408D882A434FF642
:1055C000FF652B404FF6FF552B400D8A2B434D8A2C
:1055D0002B43838004838D684563028470BD70B55E
:1055E000002400220023058C4FF6EF763540058419
:1055F000028C8388048B48F6FF752C404FF6FF45DC
:105600002C400D884FF6FF7606EA05252C434FF611
:10561000DF752A408D8906EA05152A434D8806EA7A
:1056200005152A43304DA84202D0354DA8421DD160
:105630004FF67F752A40CD894FF6FF7606EA0515AD
:105640002A434FF6BF752A408D8806EA05152A437E
:105650004FF6FF352B404FF2FF752B400D8A06EABF
:1056600085052B434D8A06EA85052B4383800483F9
:105670008D688563028470BD70B50024002200230C
:10568000058C4FF6FF6635400584028C8388848B39
:105690004FF68F752C404FF6FC752C400D882C432F
:1056A0004FF6FF552A408D894FF6FF7606EA05250D
:1056B0002A434D8806EA05252A430B4DA84202D00D
:1056C0000F4DA84238D14FF2FF752A40CD894FF6D1
:1056D000FF7606EA05252A434FF6FF352A408D88D6
:1056E00006EA05252A4319E00000014000040040B5
:1056F00000080040000C0040001000400014004072
:1057000000040140004001400044014000480140C5
:1057100000180040001C0040002000404EF6FF75BD
:105720002B404DF6FF752B400D8A06EA05152B43DD
:105730004D8A06EA05152B43838084838D68C563F3
:10574000028470BD70B5002200230024058C4EF643
:10575000FF7635400584038C8488828B48F6FF757C
:105760002A404FF6FF452A400D884FF6FF7606EA9D
:1057700005252A434DF6FF752B408D8906EA053530
:105780002B434D8806EA05352B43FE4DA84202D037
:10579000FD4DA84208D14BF6FF752C400D8A4FF6FF
:1057A000FF7606EA85152C43848082838D68056424
:1057B000038470BD002101804180818081608181EE
:1057C000C18101824182704770B5034600200024E8
:1057D0001846183001258D40ACB21D8CA5431D84A0
:1057E00009B108290AD100EB610005684FF68F76F0
:1057F000354005600568154305600FE00D1FC5F3D2
:105800004E052844056848F6FF7635400560056872
:105810004FF6FF7606EA02263543056070BD416308
:10582000704781637047C1637047016470470A46DF
:105830000021018B4FF68F7319401143018370478C
:105840000A460021018B48F6FF7319404FF6FF739B
:1058500003EA02231943018370470A460021818B22
:105860004FF68F7319401143818370470A46002118
:10587000818B48F6FF7319404FF6FF7303EA02234A
:105880001943818370470A460021018B4FF6F77355
:1058900019401143018370470A460021018B4FF2E2
:1058A000FF7319404FF6FF7303EA02231943018384
:1058B00070470A460021818B4FF6F7731940114358
:1058C000818370470A460021818B4FF2FF73194094
:1058D0004FF6FF7303EA02231943818370470A4698
:1058E0000021018B4FF6FB73194011430183704770
:1058F0000A460021018B4FF6FF3319404FF6FF7324
:1059000003EA02231943018370470A460021818B71
:105910004FF6FB7319401143818370470A460021FB
:10592000818B4FF6FF3319404FF6FF7303EA0223D2
:105930001943818370470A460021018B4FF67F731C
:1059400019401143018370470A460021018BC1F3BE
:105950000E014FF6FF7303EA0223194301837047D8
:105960000A460021818B4FF67F73194011438183D2
:1059700070470A460021818BC1F30E014FF6FF7379
:1059800003EA02231943818370470A460021018CF0
:105990004FF6FD7319401143018470470A460021F8
:1059A000018C4FF6F77319401143018470470A4682
:1059B0000021018C4FF6DF7319404FF6FF7303EAA5
:1059C00002131943018470470A460021018C4FF6E7
:1059D0007F7319404FF6FF7303EA021319430184E2
:1059E00070470A460021018C4FF6FF5319404FF6CD
:1059F000FF7303EA02231943018470470A4600211A
:105A0000018C4FF2FF7319404FF6FF7303EA022334
:105A10001943018470470A460021018C4DF6FF733B
:105A200019404FF6FF7303EA0233194301847047AC
:105A300030B5002301248C40A3B2048C9C43048421
:105A4000048C02FA01F5ADB22C43048430BD30B5AC
:105A5000002304248C40A3B2048C9C430484048C53
:105A600002FA01F5ADB22C43048430BD828B4FF2B3
:105A7000FF331A408283828B4FF6FF7303EA0123C0
:105A80001A4382837047F0B50C4615460021002268
:105A90000026078C4EF6FF7C07EA0C070784818BF3
:105AA000028C4FF6FF7707EA043640F6FF4739408D
:105AB0004FF6FF7707EA052739434FF6FF7707EAE6
:105AC0000337394345F6FF773A4046F480573A4367
:105AD00081830284F0BD828B4FF6F3731A40828378
